{"abi":[{"type":"constructor","inputs":[{"name":"_usdc","type":"address","internalType":"address"},{"name":"_owner","type":"address","internalType":"address"},{"name":"_feeRecipient","type":"address","internalType":"address"},{"name":"_maxDepositPerTx","type":"uint256","internalType":"uint256"},{"name":"_maxWithdrawPerTx","type":"uint256","internalType":"uint256"},{"name":"_minDeposit","type":"uint256","internalType":"uint256"}],"stateMutability":"nonpayable"},{"type":"function","name":"AERO_GAUGE","inputs":[],"outputs":[{"name":"","type":"address","internalType":"address"}],"stateMutability":"view"},{"type":"function","name":"AERO_POOL","inputs":[],"outputs":[{"name":"","type":"address","internalType":"contract IERC20"}],"stateMutability":"view"},{"type":"function","name":"AERO_ROUTER","inputs":[],"outputs":[{"name":"","type":"address","internalType":"address"}],"stateMutability":"view"},{"type":"function","name":"BOLD","inputs":[],"outputs":[{"name":"","type":"address","internalType":"contract IERC20"}],"stateMutability":"view"},{"type":"function","name":"FEE_DENOMINATOR","inputs":[],"outputs":[{"name":"","type":"uint256","internalType":"uint256"}],"stateMutability":"view"},{"type":"function","name":"HARVEST_FEE_BPS","inputs":[],"outputs":[{"name":"","type":"uint256","internalType":"uint256"}],"stateMutability":"view"},{"type":"function","name":"IS_STABLE_POOL","inputs":[],"outputs":[{"name":"","type":"bool","internalType":"bool"}],"stateMutability":"view"},{"type":"function","name":"SCALE","inputs":[],"outputs":[{"name":"","type":"uint256","internalType":"uint256"}],"stateMutability":"view"},{"type":"function","name":"WITHDRAW_FEE_BPS","inputs":[],"outputs":[{"name":"","type":"uint256","internalType":"uint256"}],"stateMutability":"view"},{"type":"function","name":"claimRewards","inputs":[{"name":"rewardTokens","type":"address[]","internalType":"address[]"}],"outputs":[],"stateMutability":"nonpayable"},{"type":"function","name":"compound","inputs":[],"outputs":[],"stateMutability":"nonpayable"},{"type":"function","name":"convertToAssets","inputs":[{"name":"_shares","type":"uint256","internalType":"uint256"}],"outputs":[{"name":"","type":"uint256","internalType":"uint256"}],"stateMutability":"view"},{"type":"function","name":"convertToShares","inputs":[{"name":"assets","type":"uint256","internalType":"uint256"}],"outputs":[{"name":"","type":"uint256","internalType":"uint256"}],"stateMutability":"view"},{"type":"function","name":"deposit","inputs":[{"name":"assets","type":"uint256","internalType":"uint256"}],"outputs":[{"name":"mintedShares","type":"uint256","internalType":"uint256"}],"stateMutability":"nonpayable"},{"type":"function","name":"emergencyWithdraw","inputs":[],"outputs":[],"stateMutability":"nonpayable"},{"type":"function","name":"feeRecipient","inputs":[],"outputs":[{"name":"","type":"address","internalType":"address"}],"stateMutability":"view"},{"type":"function","name":"harvest","inputs":[{"name":"minNetProfitOut","type":"uint256","internalType":"uint256"},{"name":"minUsdcFromDivest","type":"uint256","internalType":"uint256"},{"name":"deadline","type":"uint256","internalType":"uint256"}],"outputs":[{"name":"netPayout","type":"uint256","internalType":"uint256"}],"stateMutability":"nonpayable"},{"type":"function","name":"idleBuffer","inputs":[],"outputs":[{"name":"","type":"uint256","internalType":"uint256"}],"stateMutability":"view"},{"type":"function","name":"investAllIdle","inputs":[{"name":"minBoldOut","type":"uint256","internalType":"uint256"},{"name":"minLpOut","type":"uint256","internalType":"uint256"},{"name":"deadline","type":"uint256","internalType":"uint256"}],"outputs":[],"stateMutability":"nonpayable"},{"type":"function","name":"maxDepositPerTx","inputs":[],"outputs":[{"name":"","type":"uint256","internalType":"uint256"}],"stateMutability":"view"},{"type":"function","name":"maxPriceDeviationBps","inputs":[],"outputs":[{"name":"","type":"uint256","internalType":"uint256"}],"stateMutability":"view"},{"type":"function","name":"maxStrategyRatio","inputs":[],"outputs":[{"name":"","type":"uint256","internalType":"uint256"}],"stateMutability":"view"},{"type":"function","name":"maxWithdrawPerTx","inputs":[],"outputs":[{"name":"","type":"uint256","internalType":"uint256"}],"stateMutability":"view"},{"type":"function","name":"minDeposit","inputs":[],"outputs":[{"name":"","type":"uint256","internalType":"uint256"}],"stateMutability":"view"},{"type":"function","name":"owner","inputs":[],"outputs":[{"name":"","type":"address","internalType":"address"}],"stateMutability":"view"},{"type":"function","name":"pause","inputs":[],"outputs":[],"stateMutability":"nonpayable"},{"type":"function","name":"paused","inputs":[],"outputs":[{"name":"","type":"bool","internalType":"bool"}],"stateMutability":"view"},{"type":"function","name":"recoverERC20","inputs":[{"name":"token","type":"address","internalType":"address"},{"name":"amount","type":"uint256","internalType":"uint256"}],"outputs":[],"stateMutability":"nonpayable"},{"type":"function","name":"renounceOwnership","inputs":[],"outputs":[],"stateMutability":"nonpayable"},{"type":"function","name":"setFeeRecipient","inputs":[{"name":"newRecipient","type":"address","internalType":"address"}],"outputs":[],"stateMutability":"nonpayable"},{"type":"function","name":"setIdleBuffer","inputs":[{"name":"newIdleBuffer","type":"uint256","internalType":"uint256"}],"outputs":[],"stateMutability":"nonpayable"},{"type":"function","name":"setMaxPriceDeviationBps","inputs":[{"name":"newDeviationBps","type":"uint256","internalType":"uint256"}],"outputs":[],"stateMutability":"nonpayable"},{"type":"function","name":"setMaxStrategyRatio","inputs":[{"name":"newRatioBps","type":"uint256","internalType":"uint256"}],"outputs":[],"stateMutability":"nonpayable"},{"type":"function","name":"shares","inputs":[{"name":"","type":"address","internalType":"address"}],"outputs":[{"name":"","type":"uint256","internalType":"uint256"}],"stateMutability":"view"},{"type":"function","name":"totalAssets","inputs":[],"outputs":[{"name":"","type":"uint256","internalType":"uint256"}],"stateMutability":"view"},{"type":"function","name":"totalPrincipal","inputs":[],"outputs":[{"name":"","type":"uint256","internalType":"uint256"}],"stateMutability":"view"},{"type":"function","name":"totalShares","inputs":[],"outputs":[{"name":"","type":"uint256","internalType":"uint256"}],"stateMutability":"view"},{"type":"function","name":"transferOwnership","inputs":[{"name":"newOwner","type":"address","internalType":"address"}],"outputs":[],"stateMutability":"nonpayable"},{"type":"function","name":"unpause","inputs":[],"outputs":[],"stateMutability":"nonpayable"},{"type":"function","name":"updateLimits","inputs":[{"name":"newMaxDepositPerTx","type":"uint256","internalType":"uint256"},{"name":"newMaxWithdrawPerTx","type":"uint256","internalType":"uint256"},{"name":"newMinDeposit","type":"uint256","internalType":"uint256"}],"outputs":[],"stateMutability":"nonpayable"},{"type":"function","name":"usdc","inputs":[],"outputs":[{"name":"","type":"address","internalType":"contract IERC20"}],"stateMutability":"view"},{"type":"function","name":"userInfo","inputs":[{"name":"","type":"address","internalType":"address"}],"outputs":[{"name":"totalDeposited","type":"uint256","internalType":"uint256"},{"name":"totalWithdrawn","type":"uint256","internalType":"uint256"},{"name":"lastDepositTime","type":"uint64","internalType":"uint64"}],"stateMutability":"view"},{"type":"function","name":"userPrincipal","inputs":[{"name":"","type":"address","internalType":"address"}],"outputs":[{"name":"","type":"uint256","internalType":"uint256"}],"stateMutability":"view"},{"type":"function","name":"userProfit","inputs":[{"name":"user","type":"address","internalType":"address"}],"outputs":[{"name":"","type":"uint256","internalType":"uint256"}],"stateMutability":"view"},{"type":"function","name":"userValue","inputs":[{"name":"user","type":"address","internalType":"address"}],"outputs":[{"name":"","type":"uint256","internalType":"uint256"}],"stateMutability":"view"},{"type":"function","name":"withdraw","inputs":[{"name":"shareAmount","type":"uint256","internalType":"uint256"},{"name":"minNetAssetsOut","type":"uint256","internalType":"uint256"},{"name":"minUsdcFromDivest","type":"uint256","internalType":"uint256"},{"name":"deadline","type":"uint256","internalType":"uint256"}],"outputs":[{"name":"netAssets","type":"uint256","internalType":"uint256"}],"stateMutability":"nonpayable"},{"type":"event","name":"Compound","inputs":[{"name":"user","type":"address","indexed":true,"internalType":"address"},{"name":"oldPrincipal","type":"uint256","indexed":false,"internalType":"uint256"},{"name":"newPrincipal","type":"uint256","indexed":false,"internalType":"uint256"}],"anonymous":false},{"type":"event","name":"Deposit","inputs":[{"name":"user","type":"address","indexed":true,"internalType":"address"},{"name":"assets","type":"uint256","indexed":false,"internalType":"uint256"},{"name":"sharesMinted","type":"uint256","indexed":false,"internalType":"uint256"}],"anonymous":false},{"type":"event","name":"FeeRecipientUpdated","inputs":[{"name":"newRecipient","type":"address","indexed":false,"internalType":"address"}],"anonymous":false},{"type":"event","name":"Harvest","inputs":[{"name":"user","type":"address","indexed":true,"internalType":"address"},{"name":"profit","type":"uint256","indexed":false,"internalType":"uint256"},{"name":"fee","type":"uint256","indexed":false,"internalType":"uint256"},{"name":"netPayout","type":"uint256","indexed":false,"internalType":"uint256"}],"anonymous":false},{"type":"event","name":"IdleBufferUpdated","inputs":[{"name":"newIdleBuffer","type":"uint256","indexed":false,"internalType":"uint256"}],"anonymous":false},{"type":"event","name":"LimitsUpdated","inputs":[{"name":"maxDepositPerTx","type":"uint256","indexed":false,"internalType":"uint256"},{"name":"maxWithdrawPerTx","type":"uint256","indexed":false,"internalType":"uint256"},{"name":"minDeposit","type":"uint256","indexed":false,"internalType":"uint256"}],"anonymous":false},{"type":"event","name":"OwnershipTransferred","inputs":[{"name":"previousOwner","type":"address","indexed":true,"internalType":"address"},{"name":"newOwner","type":"address","indexed":true,"internalType":"address"}],"anonymous":false},{"type":"event","name":"Paused","inputs":[{"name":"account","type":"address","indexed":false,"internalType":"address"}],"anonymous":false},{"type":"event","name":"PriceDeviationUpdated","inputs":[{"name":"newDeviationBps","type":"uint256","indexed":false,"internalType":"uint256"}],"anonymous":false},{"type":"event","name":"RewardsClaimed","inputs":[{"name":"caller","type":"address","indexed":true,"internalType":"address"},{"name":"tokens","type":"address[]","indexed":false,"internalType":"address[]"},{"name":"recipient","type":"address","indexed":true,"internalType":"address"}],"anonymous":false},{"type":"event","name":"StrategyDivested","inputs":[{"name":"targetIdle","type":"uint256","indexed":false,"internalType":"uint256"},{"name":"lpBurned","type":"uint256","indexed":false,"internalType":"uint256"},{"name":"usdcReceived","type":"uint256","indexed":false,"internalType":"uint256"}],"anonymous":false},{"type":"event","name":"StrategyInvested","inputs":[{"name":"usdcDeployed","type":"uint256","indexed":false,"internalType":"uint256"},{"name":"lpMinted","type":"uint256","indexed":false,"internalType":"uint256"}],"anonymous":false},{"type":"event","name":"StrategyRatioUpdated","inputs":[{"name":"newRatioBps","type":"uint256","indexed":false,"internalType":"uint256"}],"anonymous":false},{"type":"event","name":"Unpaused","inputs":[{"name":"account","type":"address","indexed":false,"internalType":"address"}],"anonymous":false},{"type":"event","name":"Withdraw","inputs":[{"name":"user","type":"address","indexed":true,"internalType":"address"},{"name":"sharesBurned","type":"uint256","indexed":false,"internalType":"uint256"},{"name":"grossAssets","type":"uint256","indexed":false,"internalType":"uint256"},{"name":"fee","type":"uint256","indexed":false,"internalType":"uint256"},{"name":"netAssets","type":"uint256","indexed":false,"internalType":"uint256"}],"anonymous":false},{"type":"error","name":"AboveMaxDeposit","inputs":[]},{"type":"error","name":"AboveMaxWithdraw","inputs":[]},{"type":"error","name":"BelowMinDeposit","inputs":[]},{"type":"error","name":"CannotRecoverToken","inputs":[]},{"type":"error","name":"DeadlineExpired","inputs":[]},{"type":"error","name":"EnforcedPause","inputs":[]},{"type":"error","name":"ExpectedPause","inputs":[]},{"type":"error","name":"InsufficientLiquidity","inputs":[]},{"type":"error","name":"InvalidLimits","inputs":[]},{"type":"error","name":"NoProfit","inputs":[]},{"type":"error","name":"NoShares","inputs":[]},{"type":"error","name":"OwnableInvalidOwner","inputs":[{"name":"owner","type":"address","internalType":"address"}]},{"type":"error","name":"OwnableUnauthorizedAccount","inputs":[{"name":"account","type":"address","internalType":"address"}]},{"type":"error","name":"PoolConfigMismatch","inputs":[]},{"type":"error","name":"PriceOutOfRange","inputs":[]},{"type":"error","name":"ReentrancyGuardReentrantCall","inputs":[]},{"type":"error","name":"SafeERC20FailedOperation","inputs":[{"name":"token","type":"address","internalType":"address"}]},{"type":"error","name":"SlippageTooHigh","inputs":[]},{"type":"error","name":"StrategyRatioTooHigh","inputs":[]},{"type":"error","name":"ZeroAddress","inputs":[]},{"type":"error","name":"ZeroAmount","inputs":[]}],"bytecode":{"object":"0x60a060405234620000ef57620000256200001862000243565b9493909392919262000469565b6200002f620000f5565b6157e36200085982396080518181816108da015281816113e8015281816117ca015281816118bf0152818161193401528181611da701528181611ed801528181611f4e01528181612229015281816126c4015281816127e801528181612842015281816128f201528181612965015281816130ac0152818161349b0152818161356601528181613a790152818161409301528181614331015281816143d8015281816144910152818161460c01528181614df60152614e9701526157e390f35b620000fb565b60405190565b5f80fd5b601f801991011690565b634e487b7160e01b5f52604160045260245ffd5b906200012990620000ff565b810190811060018060401b038211176200014257604052565b62000109565b906200015f62000157620000f5565b92836200011d565b565b5f80fd5b60018060a01b031690565b6200017b9062000165565b90565b620001898162000170565b036200019157565b5f80fd5b90505190620001a4826200017e565b565b90565b620001b481620001a6565b03620001bc57565b5f80fd5b90505190620001cf82620001a9565b565b909160c0828403126200023d57620001ec835f840162000195565b92620001fc816020850162000195565b926200020c826040830162000195565b926200023a620002208460608501620001c0565b93620002308160808601620001c0565b9360a001620001c0565b90565b62000161565b620002666200603c803803806200025a8162000148565b928339810190620001d1565b909192939495565b5f1b90565b90620002815f19916200026e565b9181191691161790565b90565b90565b620002aa620002a4620002b0926200028b565b6200028e565b620001a6565b90565b90565b90620002d0620002ca620002d89262000291565b620002b3565b825462000273565b9055565b90565b620002f8620002f2620002fe92620002dc565b6200028e565b620001a6565b90565b906200031b620003156200032392620002df565b620002b3565b825462000273565b9055565b90565b620003436200033d620003499262000327565b6200028e565b62000165565b90565b62000357906200032a565b90565b5f0190565b62000378620003726200037e9262000327565b6200028e565b620001a6565b90565b6200039a62000394620003a09262000165565b6200028e565b62000165565b90565b620003ae9062000381565b90565b620003bc90620003a3565b90565b90620003d260018060a01b03916200026e565b9181191691161790565b620003e79062000381565b90565b620003f590620003dc565b90565b90565b90620004156200040f6200041d92620003ea565b620003f8565b8254620003bf565b9055565b6200043a620004346200044092620001a6565b6200028e565b620001a6565b90565b906200045d62000457620004659262000421565b620002b3565b825462000273565b9055565b929493919062000479816200063b565b62000488612328600a620002b6565b620004976103e8600b62000301565b83620004b8620004b1620004ab5f6200034c565b62000170565b9162000170565b1490811562000611575b508015620005e8575b620005c15784620004e7620004e05f6200035f565b91620001a6565b148015620005a2575b6200057b57836200050c6200050587620001a6565b91620001a6565b11620005545762000552946200053a62000542926200052f6200054a96620003b1565b6080526005620003fb565b600662000443565b600762000443565b600862000443565b565b6200055e620000f5565b63e773e0a960e01b81528062000577600482016200035a565b0390fd5b62000585620000f5565b63e773e0a960e01b8152806200059e600482016200035a565b0390fd5b5081620005ba620005b35f6200035f565b91620001a6565b14620004f0565b620005cb620000f5565b63d92e233d60e01b815280620005e4600482016200035a565b0390fd5b50806200060a62000603620005fd5f6200034c565b62000170565b9162000170565b14620004cb565b9050620006336200062c620006265f6200034c565b62000170565b9162000170565b145f620004c2565b62000646906200067c565b565b90565b620006646200065e6200066a9262000648565b6200028e565b620001a6565b90565b6200067960016200064b565b90565b6200068790620006d9565b620006b1620006956200066d565b5f620006aa620006a46200079b565b620007b3565b0162000443565b565b620006be9062000170565b9052565b9190620006d7905f60208501940190620006b3565b565b80620006fa620006f3620006ed5f6200034c565b62000170565b9162000170565b146200070d576200070b90620007ed565b565b6200073d6200071c5f6200034c565b62000726620000f5565b918291631e4fbdf760e01b835260048301620006c2565b0390fd5b5f90565b90565b90565b620007646200075e6200076a9262000745565b6200026e565b62000748565b90565b620007987f9b779b17422d0df92223018b32b4d1fa46e071723d6817e2486d003becc55f006200074b565b90565b620007a562000741565b50620007b06200076d565b90565b90565b5f1c90565b60018060a01b031690565b620007d5620007db91620007b6565b620007bb565b90565b620007ea9054620007c6565b90565b620007f85f620007de565b62000804825f620003fb565b906200083c620008357f8be0079c531659141344cd1fd0a4f28419497f9722a3daafe3b4186f6b6457e093620003ea565b91620003ea565b9162000847620000f5565b8062000853816200035a565b0390a356fe60806040526004361015610013575b6112fa565b61001d5f356102fc565b806301e1d114146102f75780630475bb6a146102f257806305547b17146102ed5780630613d952146102e857806307a2d13a146102e35780631959a002146102de5780632713bf6a146102d9578063284fa344146102d457806336a0f8a5146102cf5780633a98ef39146102ca5780633b9deaae146102c55780633e413bee146102c05780633f4ba83a146102bb5780634082fa9b146102b657806341b3d185146102b157806346904840146102ac5780634b1533b2146102a75780634e2e8d60146102a25780635c975abb1461029d5780635d926ced1461029857806362dab62614610293578063671d3e001461028e578063674fb1b4146102895780636785162314610284578063715018a61461027f57806379baa1a21461027a5780638456cb59146102755780638980f11f146102705780638da5cb5b1461026b5780638ecda7821461026657806390a8211214610261578063973bae461461025c578063b6b55f2514610257578063beeb4da914610252578063c6e6f5921461024d578063ce7c2ac214610248578063d5ee11ee14610243578063d73792a91461023e578063d79400f414610239578063db2e21bc14610234578063e74b981b1461022f578063eb3b09fc1461022a578063eced552614610225578063f2fde38b14610220578063f69e20461461021b5763f9f031df0361000e576112c6565b611212565b6111df565b6111aa565b611137565b6110f4565b6110c1565b61108e565b611059565b610fec565b610f9f565b610f51565b610f1e565b610ee9565b610eb6565b610e81565b610e4d565b610e18565b610de4565b610d84565b610d4f565b610d0d565b610cd8565b610c9f565b610c24565b610be0565b610b7c565b610b38565b610adc565b610a98565b610a54565b6109df565b61099b565b610931565b6108fc565b6108a3565b61084b565b610808565b6107cd565b61075e565b6106e1565b61056b565b6104f1565b610491565b6103b5565b610344565b60e01c90565b60405190565b5f80fd5b5f80fd5b5f91031261031a57565b61030c565b90565b61032b9061031f565b9052565b9190610342905f60208501940190610322565b565b3461037457610354366004610310565b61037061035f6113d5565b610367610302565b9182918261032f565b0390f35b610308565b1c90565b90565b6103909060086103959302610379565b61037d565b90565b906103a39154610380565b90565b6103b2600a5f90610398565b90565b346103e5576103c5366004610310565b6103e16103d06103a6565b6103d8610302565b9182918261032f565b0390f35b610308565b60018060a01b031690565b90565b61040c610407610411926103ea565b6103f5565b6103ea565b90565b61041d906103f8565b90565b61042990610414565b90565b610449732de3fe21d32319a1550264da37846737885ad7a1610420565b90565b61045461042c565b90565b610460906103f8565b90565b61046c90610457565b90565b61047890610463565b9052565b919061048f905f6020850194019061046f565b565b346104c1576104a1366004610310565b6104bd6104ac61044c565b6104b4610302565b9182918261047c565b0390f35b610308565b6104e37303569cc076654f82679c4ba2124d64774781b01d610420565b90565b6104ee6104c6565b90565b3461052157610501366004610310565b61051d61050c6104e6565b610514610302565b9182918261047c565b0390f35b610308565b5f80fd5b6105338161031f565b0361053a57565b5f80fd5b9050359061054b8261052a565b565b9060208282031261056657610563915f0161053e565b90565b61030c565b3461059b5761059761058661058136600461054d565b6114b7565b61058e610302565b9182918261032f565b0390f35b610308565b6105a9906103ea565b90565b6105b5816105a0565b036105bc57565b5f80fd5b905035906105cd826105ac565b565b906020828203126105e8576105e5915f016105c0565b90565b61030c565b6105f690610457565b90565b90610603906105ed565b5f5260205260405f2090565b5f1c90565b6106206106259161060f565b61037d565b90565b6106329054610614565b90565b67ffffffffffffffff1690565b61064e6106539161060f565b610635565b90565b6106609054610642565b90565b61066e90600c6105f9565b6106795f8201610628565b91610692600261068b60018501610628565b9301610656565b90565b67ffffffffffffffff1690565b6106ab90610695565b9052565b6040906106d86106df94969593966106ce60608401985f850190610322565b6020830190610322565b01906106a2565b565b34610714576107106106fc6106f73660046105cf565b610663565b610707939193610302565b938493846106af565b0390f35b610308565b737fdcbc8c442c667d41a1041bdc6e588393ceb6fe90565b610739610719565b90565b610745906105a0565b9052565b919061075c905f6020850194019061073c565b565b3461078e5761076e366004610310565b61078a610779610731565b610781610302565b91829182610749565b0390f35b610308565b90916060828403126107c8576107c56107ae845f850161053e565b936107bc816020860161053e565b9360400161053e565b90565b61030c565b346107fe576107fa6107e96107e3366004610793565b91611a77565b6107f1610302565b9182918261032f565b0390f35b610308565b5f0190565b346108375761082161081b366004610793565b91611b9b565b610829610302565b8061083381610803565b0390f35b610308565b61084860015f90610398565b90565b3461087b5761085b366004610310565b61087761086661083c565b61086e610302565b9182918261032f565b0390f35b610308565b73cf77a3ba9a5ca399b7c97c74d54e5b1beb874e4390565b6108a0610880565b90565b346108d3576108b3366004610310565b6108cf6108be610898565b6108c6610302565b91829182610749565b0390f35b610308565b7f000000000000000000000000000000000000000000000000000000000000000090565b3461092c5761090c366004610310565b6109286109176108d8565b61091f610302565b9182918261047c565b0390f35b610308565b3461095f57610941366004610310565b610949611bc4565b610951610302565b8061095b81610803565b0390f35b610308565b90565b61097b61097661098092610964565b6103f5565b61031f565b90565b61098d601e610967565b90565b610998610983565b90565b346109cb576109ab366004610310565b6109c76109b6610990565b6109be610302565b9182918261032f565b0390f35b610308565b6109dc60085f90610398565b90565b34610a0f576109ef366004610310565b610a0b6109fa6109d0565b610a02610302565b9182918261032f565b0390f35b610308565b60018060a01b031690565b610a2f906008610a349302610379565b610a14565b90565b90610a429154610a1f565b90565b610a5160055f90610a37565b90565b34610a8457610a64366004610310565b610a80610a6f610a45565b610a77610302565b91829182610749565b0390f35b610308565b610a9560045f90610398565b90565b34610ac857610aa8366004610310565b610ac4610ab3610a89565b610abb610302565b9182918261032f565b0390f35b610308565b610ad960065f90610398565b90565b34610b0c57610aec366004610310565b610b08610af7610acd565b610aff610302565b9182918261032f565b0390f35b610308565b151590565b610b1f90610b11565b9052565b9190610b36905f60208501940190610b16565b565b34610b6857610b48366004610310565b610b64610b53611bff565b610b5b610302565b91829182610b23565b0390f35b610308565b610b7960075f90610398565b90565b34610bac57610b8c366004610310565b610ba8610b97610b6d565b610b9f610302565b9182918261032f565b0390f35b610308565b90610bbb906105ed565b5f5260205260405f2090565b610bdd90610bd86003915f92610bb1565b610398565b90565b34610c1057610c0c610bfb610bf63660046105cf565b610bc7565b610c03610302565b9182918261032f565b0390f35b610308565b610c2160095f90610398565b90565b34610c5457610c34366004610310565b610c50610c3f610c15565b610c47610302565b9182918261032f565b0390f35b610308565b608081830312610c9a57610c6f825f830161053e565b92610c97610c80846020850161053e565b93610c8e816040860161053e565b9360600161053e565b90565b61030c565b34610cd357610ccf610cbe610cb5366004610c59565b92919091612128565b610cc6610302565b9182918261032f565b0390f35b610308565b34610d0857610d04610cf3610cee3660046105cf565b61213f565b610cfb610302565b9182918261032f565b0390f35b610308565b34610d3b57610d1d366004610310565b610d256121c0565b610d2d610302565b80610d3781610803565b0390f35b610308565b610d4c600b5f90610398565b90565b34610d7f57610d5f366004610310565b610d7b610d6a610d40565b610d72610302565b9182918261032f565b0390f35b610308565b34610db257610d94366004610310565b610d9c6121e6565b610da4610302565b80610dae81610803565b0390f35b610308565b9190604083820312610ddf5780610dd3610ddc925f86016105c0565b9360200161053e565b90565b61030c565b34610e1357610dfd610df7366004610db7565b90612321565b610e05610302565b80610e0f81610803565b0390f35b610308565b34610e4857610e28366004610310565b610e44610e33612331565b610e3b610302565b91829182610749565b0390f35b610308565b34610e7c57610e66610e60366004610793565b91612e3b565b610e6e610302565b80610e7881610803565b0390f35b610308565b34610eb157610ead610e9c610e973660046105cf565b612e48565b610ea4610302565b9182918261032f565b0390f35b610308565b34610ee457610ece610ec936600461054d565b612f6f565b610ed6610302565b80610ee081610803565b0390f35b610308565b34610f1957610f15610f04610eff36600461054d565b613281565b610f0c610302565b9182918261032f565b0390f35b610308565b34610f4c57610f36610f3136600461054d565b613330565b610f3e610302565b80610f4881610803565b0390f35b610308565b34610f8157610f7d610f6c610f6736600461054d565b61333b565b610f74610302565b9182918261032f565b0390f35b610308565b610f9c90610f976002915f92610bb1565b610398565b90565b34610fcf57610fcb610fba610fb53660046105cf565b610f86565b610fc2610302565b9182918261032f565b0390f35b610308565b610fde601e610967565b90565b610fe9610fd4565b90565b3461101c57610ffc366004610310565b611018611007610fe1565b61100f610302565b9182918261032f565b0390f35b610308565b90565b61103861103361103d92611021565b6103f5565b61031f565b90565b61104b612710611024565b90565b611056611040565b90565b3461108957611069366004610310565b61108561107461104e565b61107c610302565b9182918261032f565b0390f35b610308565b346110bc576110a66110a136600461054d565b613423565b6110ae610302565b806110b881610803565b0390f35b610308565b346110ef576110d1366004610310565b6110d96135ea565b6110e1610302565b806110eb81610803565b0390f35b610308565b346111225761110c6111073660046105cf565b6136ce565b611114610302565b8061111e81610803565b0390f35b610308565b600190565b611134611127565b90565b3461116757611147366004610310565b61116361115261112c565b61115a610302565b91829182610b23565b0390f35b610308565b90565b61118361117e6111889261116c565b6103f5565b61031f565b90565b61119c670de0b6b3a764000061116f565b90565b6111a761118b565b90565b346111da576111ba366004610310565b6111d66111c561119f565b6111cd610302565b9182918261032f565b0390f35b610308565b3461120d576111f76111f23660046105cf565b613745565b6111ff610302565b8061120981610803565b0390f35b610308565b3461124057611222366004610310565b61122a61389d565b611232610302565b8061123c81610803565b0390f35b610308565b5f80fd5b5f80fd5b5f80fd5b909182601f8301121561128b5781359167ffffffffffffffff831161128657602001926020830284011161128157565b61124d565b611249565b611245565b906020828203126112c1575f82013567ffffffffffffffff81116112bc576112b89201611251565b9091565b610526565b61030c565b346112f5576112df6112d9366004611290565b90613c9a565b6112e7610302565b806112f181610803565b0390f35b610308565b5f80fd5b5f90565b61130b90610457565b90565b5f80fd5b601f801991011690565b634e487b7160e01b5f52604160045260245ffd5b9061133a90611312565b810190811067ffffffffffffffff82111761135457604052565b61131c565b60e01b90565b9050519061136c8261052a565b565b9060208282031261138757611384915f0161135f565b90565b61030c565b611394610302565b3d5f823e3d90fd5b634e487b7160e01b5f52601160045260245ffd5b6113bf6113c59193929361031f565b9261031f565b82018092116113d057565b61139c565b6113dd6112fe565b5061143e602061140c7f0000000000000000000000000000000000000000000000000000000000000000610463565b6370a082319061143361141e30611302565b92611427610302565b95869485938493611359565b835260048301610749565b03915afa801561149357611462915f91611465575b5061145c613ca6565b906113b0565b90565b611486915060203d811161148c575b61147e8183611330565b81019061136e565b5f611453565b503d611474565b61138c565b90565b6114af6114aa6114b492611498565b6103f5565b61031f565b90565b6114bf6112fe565b506114ca6001610628565b6114d26113d5565b90826114e66114e05f61149b565b9161031f565b148015611510575b611501576114fe92915f92613e6a565b90565b50505061150d5f61149b565b90565b508061152461151e5f61149b565b9161031f565b146114ee565b9061153e939291611539613eeb565b611549565b90611547613f24565b565b9061155d939291611558613f48565b6116c5565b90565b61156f6115759193929361031f565b9261031f565b820391821161158057565b61139c565b61159461159a9193929361031f565b9261031f565b916115a683820261031f565b9281840414901517156115b557565b61139c565b634e487b7160e01b5f52601260045260245ffd5b6115da6115e09161031f565b9161031f565b9081156115eb570490565b6115ba565b5f1b90565b906116015f19916115f0565b9181191691161790565b61161f61161a6116249261031f565b6103f5565b61031f565b90565b90565b9061163f61163a6116469261160b565b611627565b82546115f5565b9055565b61165661165b9161060f565b610a14565b90565b611668905461164a565b90565b61167f61167a61168492611498565b6103f5565b6103ea565b90565b6116909061166b565b90565b6040906116bc6116c394969593966116b260608401985f850190610322565b6020830190610322565b0190610322565b565b9392909350426116dd6116d78361031f565b9161031f565b11611a54576116f66116f160023390610bb1565b610628565b806117096117035f61149b565b9161031f565b14611a31576117186001610628565b906117216113d5565b91611730828483905f92613e6a565b9061174561174060033390610bb1565b610628565b91806117596117538561031f565b9161031f565b1115611a0e5761176a908390611560565b9461178e6117808761177a610fd4565b90611585565b611788611040565b906115ce565b9661179a878990611560565b996117ae6117a88c9261031f565b9161031f565b106119eb576117c09187919091614086565b61182060206117ee7f0000000000000000000000000000000000000000000000000000000000000000610463565b6370a082319061181561180030611302565b92611809610302565b95869485938493611359565b835260048301610749565b03915afa9081156119e6575f916119b8575b5061184561183f8761031f565b9161031f565b106119955761186a6118949361188f9261186361189b978990611560565b5f92613e6a565b916118808361187b60033390610bb1565b61162a565b61188a6004610628565b611560565b6113b0565b600461162a565b816118ae6118a85f61149b565b9161031f565b1180611969575b61192f575b6118e67f0000000000000000000000000000000000000000000000000000000000000000338691614998565b339091849261192a6119187f4534f107610758c3931de9ad1e176476fcfb8c74adf920167e1d54ee84fcfe76946105ed565b94611921610302565b93849384611693565b0390a2565b6119647f000000000000000000000000000000000000000000000000000000000000000061195d600561165e565b8491614998565b6118ba565b50611974600561165e565b61198e6119886119835f611687565b6105a0565b916105a0565b14156118b5565b61199d610302565b63bb55fd2760e01b8152806119b460048201610803565b0390fd5b6119d9915060203d81116119df575b6119d18183611330565b81019061136e565b5f611832565b503d6119c7565b61138c565b6119f3610302565b63428637bb60e11b815280611a0a60048201610803565b0390fd5b611a16610302565b6371cd57f760e11b815280611a2d60048201610803565b0390fd5b611a39610302565b63b317087b60e01b815280611a5060048201610803565b0390fd5b611a5c610302565b631ab7da6b60e01b815280611a7360048201610803565b0390fd5b90611a8a9291611a856112fe565b61152a565b90565b90611aa09291611a9b6149e6565b611aa2565b565b91909180611ab8611ab25f61149b565b9161031f565b148015611b81575b611b5e5781611ad7611ad18361031f565b9161031f565b11611b3b57611ae781600661162a565b611af283600761162a565b611afd82600861162a565b919091611b367faa2ef8ba434f2f6bdaad3fcc2d5c35f02b08a47173c94877259407614bc46b5593611b2d610302565b93849384611693565b0390a1565b611b43610302565b63e773e0a960e01b815280611b5a60048201610803565b0390fd5b611b66610302565b63e773e0a960e01b815280611b7d60048201610803565b0390fd5b5082611b95611b8f5f61149b565b9161031f565b14611ac0565b90611ba69291611a8d565b565b611bb06149e6565b611bb8611bba565b565b611bc2614ae8565b565b611bcc611ba8565b565b5f90565b60a01c90565b60ff1690565b611bea611bef91611bd2565b611bd8565b90565b611bfc9054611bde565b90565b611c07611bce565b50611c115f611bf2565b90565b90611c2994939291611c24613eeb565b611c34565b90611c32613f24565b565b90611c4994939291611c44613f48565b611c8a565b90565b611c81611c8894611c77606094989795611c6d608086019a5f870190610322565b6020850190610322565b6040830190610322565b0190610322565b565b9493929091945042611ca4611c9e8561031f565b9161031f565b116121055781611cbc611cb65f61149b565b9161031f565b146120e257611cd5611cd060023390610bb1565b610628565b80611ce8611ce28561031f565b9161031f565b106120bf57611cf76001610628565b90611d0e611d036113d5565b859084905f92613e6a565b9485611d22611d1c5f61149b565b9161031f565b1461209c5785611d43611d3d611d386007610628565b61031f565b9161031f565b1161207957611d6b611d5d87611d57610983565b90611585565b611d65611040565b906115ce565b93611d77878690611560565b98611d8b611d858b9261031f565b9161031f565b1061205657611d9d9187919091614086565b611dfd6020611dcb7f0000000000000000000000000000000000000000000000000000000000000000610463565b6370a0823190611df2611ddd30611302565b92611de6610302565b95869485938493611359565b835260048301610749565b03915afa908115612051575f91612023575b50611e22611e1c8761031f565b9161031f565b1061200057611e8991611e7b611e6a611e8293611e49611e4460033390610bb1565b610628565b80611e5c611e565f61149b565b9161031f565b11611faf575b508790611560565b611e7660023390610bb1565b61162a565b8490611560565b600161162a565b611eb485611eae6001611e9e600c33906105f9565b0191611ea983610628565b6113b0565b9061162a565b80611ec7611ec15f61149b565b9161031f565b1180611f83575b611f49575b611eff7f0000000000000000000000000000000000000000000000000000000000000000338791614998565b3391929092611f4486611f327fe08737ac48a1dab4b1a46c7dc9398bd5bfc6d7ad6fabb7cd8caa254de14def35956105ed565b95611f3b610302565b94859485611c4c565b0390a2565b611f7e7f0000000000000000000000000000000000000000000000000000000000000000611f77600561165e565b8391614998565b611ed3565b50611f8e600561165e565b611fa8611fa2611f9d5f611687565b6105a0565b916105a0565b1415611ece565b611ff381611fe4611fd3611fcb8d611ffa969088905f92613e6a565b928390611560565b611fdf60033390610bb1565b61162a565b611fee6004610628565b611560565b600461162a565b5f611e62565b612008610302565b63bb55fd2760e01b81528061201f60048201610803565b0390fd5b612044915060203d811161204a575b61203c8183611330565b81019061136e565b5f611e0f565b503d612032565b61138c565b61205e610302565b63428637bb60e11b81528061207560048201610803565b0390fd5b612081610302565b633477c97960e01b81528061209860048201610803565b0390fd5b6120a4610302565b631f2a200560e01b8152806120bb60048201610803565b0390fd5b6120c7610302565b63b317087b60e01b8152806120de60048201610803565b0390fd5b6120ea610302565b631f2a200560e01b81528061210160048201610803565b0390fd5b61210d610302565b631ab7da6b60e01b81528061212460048201610803565b0390fd5b9061213c9392916121376112fe565b611c14565b90565b6121476112fe565b5061216461215f61215783612e48565b926003610bb1565b610628565b816121776121718361031f565b9161031f565b115f1461218b5761218791611560565b5b90565b50506121965f61149b565b612188565b6121a36149e6565b6121ab6121ad565b565b6121be6121b95f611687565b614af2565b565b6121c861219b565b565b6121d26149e6565b6121da6121dc565b565b6121e4614bb1565b565b6121ee6121ca565b565b90612202916121fd6149e6565b612204565b565b90806122186122125f61149b565b9161031f565b146122fe578161225861225261224d7f0000000000000000000000000000000000000000000000000000000000000000610463565b6105a0565b916105a0565b1480156122d5575b80156122ac575b6122895761227761228792610420565b90612280612331565b9091614998565b565b612291610302565b6380eb2a0160e01b8152806122a860048201610803565b0390fd5b50816122cf6122c96122c46122bf61042c565b610463565b6105a0565b916105a0565b14612267565b50816122f86122f26122ed6122e86104c6565b610463565b6105a0565b916105a0565b14612260565b612306610302565b631f2a200560e01b81528061231d60048201610803565b0390fd5b9061232b916121f0565b565b5f90565b61233961232d565b506123435f61165e565b90565b9061235992916123546149e6565b61235b565b565b9061236e9291612369613f48565b612370565b565b90612383929161237e613eeb565b6126a0565b61238b613f24565b565b90565b6123a461239f6123a99261238d565b6103f5565b61031f565b90565b6123b5906103f8565b90565b6123c1906123ac565b90565b6123cd90610457565b90565b906123e36123dc610302565b9283611330565b565b67ffffffffffffffff81116123fd5760208091020190565b61131c565b90929192612417612412826123e5565b6123d0565b938185526020808601920283019281841161245457915b83831061243b5750505050565b60208091612449848661135f565b81520192019161242e565b61124d565b9080601f830112156124775781602061247493519101612402565b90565b611245565b906020828203126124ac575f82015167ffffffffffffffff81116124a7576124a49201612459565b90565b610526565b61030c565b949290979695939160e08601985f87016124ca91610322565b602086016124d791610322565b604085016124e49161073c565b606084016124f19161073c565b608083016124fe91610b16565b60a0820161250b9161073c565b60c00161251791610322565b565b5190565b90565b61253461252f6125399261251d565b6103f5565b61031f565b90565b634e487b7160e01b5f52603260045260245ffd5b9061255a82612519565b81101561256b576020809102010190565b61253c565b61257a905161031f565b90565b90916060828403126125b2576125af612598845f850161135f565b936125a6816020860161135f565b9360400161135f565b90565b61030c565b6125c09061149b565b9052565b9694929099989795939161012088019a5f89016125e09161073c565b602088016125ed9161073c565b604087016125fa91610b16565b6060860161260791610322565b6080850161261491610322565b60a08401612621916125b7565b60c0830161262e916125b7565b60e0820161263b9161073c565b6101000161264891610322565b565b612653906103f8565b90565b61265f9061264a565b90565b61266b90610457565b90565b5f91031261267857565b61030c565b91602061269e92949361269760408201965f830190610322565b0190610322565b565b9091426126b56126af8361031f565b9161031f565b11612e185761271a60206126e87f0000000000000000000000000000000000000000000000000000000000000000610463565b6370a082319061270f6126fa30611302565b92612703610302565b95869485938493611359565b835260048301610749565b03915afa908115612e13575f91612de5575b50908161274a61274461273f6009610628565b61031f565b9161031f565b1115612dc2576127648261275e6009610628565b90611560565b91826127786127725f61149b565b9161031f565b14612d9f57612787600a610628565b6127996127935f61149b565b9161031f565b11612d06575b506127aa600b610628565b6127bc6127b65f61149b565b9161031f565b11612b7c575b5f6127e26127da846127d46002612390565b906115ce565b938490611560565b936128167f000000000000000000000000000000000000000000000000000000000000000061280f610880565b8691615037565b61282e612829612824610880565b6123b8565b6123c4565b61289e836313dcfc599693966128a96128667f0000000000000000000000000000000000000000000000000000000000000000610463565b6128766128716104c6565b610463565b61287e611127565b61288730611302565b918b93612892610302565b9d8e9b8c9a8b99611359565b8952600489016124b1565b03925af18015612b77576128e76128ec916060945f91612b55575b506128e16128d182612519565b6128db6001612520565b90611560565b90612550565b612570565b926129207f0000000000000000000000000000000000000000000000000000000000000000612919610880565b8391615037565b61293a61292b6104c6565b612933610880565b8691615037565b6129c85f61295661295161294c610880565b6123b8565b6123c4565b926129d3635a47ddc3916129897f0000000000000000000000000000000000000000000000000000000000000000610463565b9661299a6129956104c6565b610463565b996129a3611127565b9290869087926129b230611302565b94956129bc610302565b9e8f9d8e9c8d9b611359565b8b5260048b016125c4565b03925af1908115612b50575f8080929093612b1d575b50919092612a006129fa859261031f565b9161031f565b10612afa57612a1f612a1061042c565b612a18610719565b8591615037565b612a37612a32612a2d610719565b612656565b612662565b9163b6b55f2584843b15612af557612a6e94612a635f8094612a57610302565b98899586948593611359565b83526004830161032f565b03925af1928315612af057612a8893612ac4575b506113b0565b907fd043680d428fc2dcd7caedf64cee767254c5d61209d38ba534529cf2c39d705291612abf612ab6610302565b9283928361267d565b0390a1565b612ae3905f3d8111612ae9575b612adb8183611330565b81019061266e565b5f612a82565b503d612ad1565b61138c565b61130e565b612b02610302565b63bb55fd2760e01b815280612b1960048201610803565b0390fd5b915050612b41915060603d8111612b49575b612b398183611330565b81019061257d565b90915f6129e9565b503d612b2f565b61138c565b612b7191503d805f833e612b698183611330565b81019061247c565b5f6128c4565b61138c565b612b93612b87614c72565b92905092909115610b11565b612ce357612ba090615013565b80612bb3612bad5f61149b565b9161031f565b14612cc057612bd791670de0b6b3a76400009190612bd15f9361116f565b90613e6a565b612be1600b610628565b612c5b612c4d612c24612c16670de0b6b3a7640000612c11612c0b612c04611040565b8890611560565b9161116f565b611585565b612c1e611040565b906115ce565b92612c48612c42670de0b6b3a764000092612c3d611040565b6113b0565b9161116f565b611585565b612c55611040565b906115ce565b90612c6f612c69849261031f565b9161031f565b10918215612ca2575b5050156127c257612c87610302565b630df22a0f60e21b815280612c9e60048201610803565b0390fd5b612cb8919250612cb2909261031f565b9161031f565b115f80612c78565b612cc8610302565b630df22a0f60e21b815280612cdf60048201610803565b0390fd5b612ceb610302565b633f0ba8e560e01b815280612d0260048201610803565b0390fd5b612d18612d11613ca6565b91826113b0565b80612d2b612d255f61149b565b9161031f565b11612d37575b5061279f565b612d45612d559285906113b0565b90612d4e611040565b5f92613e6a565b612d70612d6a612d65600a610628565b61031f565b9161031f565b11612d7c575f80612d31565b612d84610302565b6312fb9d0560e01b815280612d9b60048201610803565b0390fd5b612da7610302565b63bb55fd2760e01b815280612dbe60048201610803565b0390fd5b612dca610302565b63bb55fd2760e01b815280612de160048201610803565b0390fd5b612e06915060203d8111612e0c575b612dfe8183611330565b81019061136e565b5f61272c565b503d612df4565b61138c565b612e20610302565b631ab7da6b60e01b815280612e3760048201610803565b0390fd5b90612e469291612346565b565b612e5f612e6491612e576112fe565b506002610bb1565b610628565b80612e77612e715f61149b565b9161031f565b148015612eb1575b612ea457612ea190612e8f6113d5565b612e996001610628565b905f92613e6a565b90565b50612eae5f61149b565b90565b50612ebc6001610628565b612ece612ec85f61149b565b9161031f565b14612e7f565b612ee590612ee06149e6565b612ee7565b565b80612f01612efb612ef6611040565b61031f565b9161031f565b11612f4c57612f1181600b61162a565b612f477f0ab56de9fe168ce12a9a1f47b688d739db6607607c1d71dad52ddd8bedcf5e2591612f3e610302565b9182918261032f565b0390a1565b612f54610302565b63e773e0a960e01b815280612f6b60048201610803565b0390fd5b612f7890612ed4565b565b90612f8c91612f87613eeb565b612f97565b90612f95613f24565b565b90612fa991612fa4613f48565b613027565b90565b90565b612fc3612fbe612fc89261031f565b6103f5565b610695565b90565b90612fde67ffffffffffffffff916115f0565b9181191691161790565b612ffc612ff761300192610695565b6103f5565b610695565b90565b90565b9061301c61301761302392612fe8565b613004565b8254612fcb565b9055565b919091508161303e6130385f61149b565b9161031f565b1461325e578161305f6130596130546008610628565b61031f565b9161031f565b1061323b578161308061307a6130756006610628565b61031f565b9161031f565b116132185761308e8261333b565b91826130a261309c5f61149b565b9161031f565b146131f5576130dd7f0000000000000000000000000000000000000000000000000000000000000000336130d530611302565b908492615046565b613105836130ff6130f060023390610bb1565b916130fa83610628565b6113b0565b9061162a565b61312261311b846131166001610628565b6113b0565b600161162a565b61314a8161314461313560033390610bb1565b9161313f83610628565b6113b0565b9061162a565b6131676131608261315b6004610628565b6113b0565b600461162a565b6131af61317e613179600c33906105f9565b612fac565b61319d836131975f84019161319283610628565b6113b0565b9061162a565b60026131a842612faf565b9101613007565b33836131db7f90890809c654f11d6e72a28fa60149770a0d11ec6c92319d6ceb2bb0a4ea1a15926105ed565b926131f06131e7610302565b9283928361267d565b0390a2565b6131fd610302565b63b317087b60e01b81528061321460048201610803565b0390fd5b613220610302565b631249d93f60e11b81528061323760048201610803565b0390fd5b613243610302565b6325bb239560e21b81528061325a60048201610803565b0390fd5b613266610302565b631f2a200560e01b81528061327d60048201610803565b0390fd5b6132929061328d6112fe565b612f7a565b90565b6132a6906132a16149e6565b6132a8565b565b806132c26132bc6132b7611040565b61031f565b9161031f565b1161330d576132d281600a61162a565b6133087f0d7a3fc43fc1ca5117d7af4b75eadcccab6cf1d452070945229c45c039a21e2e916132ff610302565b9182918261032f565b0390a1565b613315610302565b6312fb9d0560e01b81528061332c60048201610803565b0390fd5b61333990613295565b565b6133436112fe565b5061334e6001610628565b6133566113d5565b826133696133635f61149b565b9161031f565b146133bb578161338161337b5f61149b565b9161031f565b1480156133a1575b61339c5761339992915f92613e6a565b90565b505090565b50806133b56133af5f61149b565b9161031f565b14613389565b5050506133c75f61149b565b90565b6133db906133d66149e6565b6133dd565b565b6133e881600961162a565b61341e7f7de80a8013161f681b5c6697a532b5248b0abb4851bf48a94f8d4ea079db5d8691613415610302565b9182918261032f565b0390a1565b61342c906133ca565b565b613436613eeb565b61343e613448565b613446613f24565b565b613450615098565b61345861345a565b565b61346e61346960023390610bb1565b610628565b8061348161347b5f61149b565b9161031f565b146135c7576134f16134936001610628565b9160206134bf7f0000000000000000000000000000000000000000000000000000000000000000610463565b6370a08231906134e66134d130611302565b926134da610302565b96879485938493611359565b835260048301610749565b03915afa9081156135c25761351a61353d92613544945f91613594575b50829086905f92613e6a565b936135386135275f61149b565b61353360023390610bb1565b61162a565b611560565b600161162a565b806135576135515f61149b565b9161031f565b11613560575b50565b61358e907f000000000000000000000000000000000000000000000000000000000000000090339091614998565b5f61355d565b6135b5915060203d81116135bb575b6135ad8183611330565b81019061136e565b5f61350e565b503d6135a3565b61138c565b6135cf610302565b63b317087b60e01b8152806135e660048201610803565b0390fd5b6135f261342e565b565b613605906136006149e6565b613645565b565b9061361860018060a01b03916115f0565b9181191691161790565b90565b9061363a613635613641926105ed565b613622565b8254613607565b9055565b8061366061365a6136555f611687565b6105a0565b916105a0565b146136ab57613670816005613625565b6136a67f7a7b5a0a132f9e0581eb8527f66eae9ee89c2a3e79d4ac7e41a1f1f4d48a7fc29161369d610302565b91829182610749565b0390a1565b6136b3610302565b63d92e233d60e01b8152806136ca60048201610803565b0390fd5b6136d7906135f4565b565b6136ea906136e56149e6565b6136ec565b565b806137076137016136fc5f611687565b6105a0565b916105a0565b146137175761371590614af2565b565b6137416137235f611687565b61372b610302565b918291631e4fbdf760e01b835260048301610749565b0390fd5b61374e906136d9565b565b613758613eeb565b61376061376a565b613768613f24565b565b613772613f48565b61377a61377c565b565b61379061378b60023390610bb1565b610628565b806137a361379d5f61149b565b9161031f565b1461387a576137c5906137b66001610628565b6137be6113d5565b5f92613e6a565b6137d96137d460033390610bb1565b610628565b816137ec6137e68361031f565b9161031f565b1115613876576138078261380260033390610bb1565b61162a565b61382f61382861382161381a6004610628565b8490611560565b84906113b0565b600461162a565b33909161385c7f0e311a2c6dbfb0153ec3a8a5bdca09070b3e5f60768fdc10a20453f38d186873926105ed565b92613871613868610302565b9283928361267d565b0390a2565b5050565b613882610302565b63b317087b60e01b81528061389960048201610803565b0390fd5b6138a5613750565b565b906138b9916138b46149e6565b6139a0565b565b5090565b91908110156138cf576020020190565b61253c565b356138de816105ac565b90565b60016138ed910161031f565b90565b60209181520190565b90565b613905906105a0565b9052565b90613916816020936138fc565b0190565b506139299060208101906105c0565b90565b60200190565b9161394082613946926138f0565b926138f9565b90815f905b828210613959575050505090565b9091929361397b613975600192613970888661391a565b613909565b9561392c565b92019092919261394b565b909161399d9260208301925f818503910152613932565b90565b91906139ba6139b56139b0610719565b612656565b612662565b633d18b91290803b15613c95576139dd915f916139d5610302565b938492611359565b82528183816139ee60048201610803565b03925af18015613c9057613c64575b50613a08600561165e565b9283613a24613a1e613a195f611687565b6105a0565b916105a0565b14613c4157613a348183906138bb565b92613a3e5f61149b565b5b80613a52613a4c8761031f565b9161031f565b1015613bec57613a6c613a67848684916138bf565b6138d4565b9081613aa8613aa2613a9d7f0000000000000000000000000000000000000000000000000000000000000000610463565b6105a0565b916105a0565b141580613bc2575b80613b98575b613aca575b613ac591506138e1565b613a3f565b816020613ae1613adc613b1395610420565b610463565b6370a0823190613b08613af330611302565b92613afc610302565b97889485938493611359565b835260048301610749565b03915afa8015613b9357613ac5935f91613b65575b5080613b3c613b365f61149b565b9161031f565b11613b49575b5050613abb565b613b55613b5e92610420565b90899091614998565b5f80613b42565b613b86915060203d8111613b8c575b613b7e8183611330565b81019061136e565b5f613b28565b503d613b74565b61138c565b5081613bbb613bb5613bb0613bab61042c565b610463565b6105a0565b916105a0565b1415613ab6565b5081613be5613bdf613bda613bd56104c6565b610463565b6105a0565b916105a0565b1415613ab0565b5093919250339092613c27613c217f2e2dc90e8230039b0d379b849da4f5529faa77b3565ccfdccbac76805ccb6a52936105ed565b936105ed565b93613c3c613c33610302565b92839283613986565b0390a3565b613c49610302565b63d92e233d60e01b815280613c6060048201610803565b0390fd5b613c83905f3d8111613c89575b613c7b8183611330565b81019061266e565b5f6139fd565b503d613c71565b61138c565b61130e565b90613ca4916138a7565b565b613cae6112fe565b50613cf66020613cc4613cbf61042c565b610463565b6370a0823190613ceb613cd630611302565b92613cdf610302565b95869485938493611359565b835260048301610749565b03915afa8015613e6557613d58915f91613e37575b506020613d26613d21613d1c610719565b612656565b612662565b6370a0823190613d4d613d3830611302565b92613d41610302565b96879485938493611359565b835260048301610749565b03915afa8015613e3257613d74925f91613e04575b50906113b0565b80613d87613d815f61149b565b9161031f565b14613df757613da290613d98614c72565b9294909215610b11565b8015613ddd575b613dcd57613dca93613dbd613dc392615013565b906113b0565b9091615187565b90565b50505050613dda5f61149b565b90565b5081613df1613deb5f61149b565b9161031f565b14613da9565b50613e015f61149b565b90565b613e25915060203d8111613e2b575b613e1d8183611330565b81019061136e565b5f613d6d565b503d613e13565b61138c565b613e58915060203d8111613e5e575b613e508183611330565b81019061136e565b5f613d0b565b503d613e46565b61138c565b929190613e756112fe565b50613e8b613e8585838591615187565b9361540f565b9384613eaa575b505050613ea1613ea79261544b565b906113b0565b90565b9091935090928015613ed957613ea793613ea19209613ed1613ecb5f61149b565b9161031f565b11925f613e92565b6115ba565b613ee86002612390565b90565b613ef3615459565b613f15613efe613ede565b5f613f0f613f0a6154dc565b6154f0565b0161162a565b565b613f216001612520565b90565b613f46613f2f613f17565b5f613f40613f3b6154dc565b6154f0565b0161162a565b565b613f50611bff565b613f5657565b613f5e610302565b63d93c066560e01b815280613f7560048201610803565b0390fd5b9190604083820312613fa15780613f95613f9e925f860161135f565b9360200161135f565b90565b61030c565b959391989796949290986101008701995f8801613fc29161073c565b60208701613fcf9161073c565b60408601613fdc91610b16565b60608501613fe991610322565b60808401613ff6916125b7565b60a08301614003916125b7565b60c082016140109161073c565b60e00161401c91610322565b565b949290979695939160e08601985f870161403791610322565b60208601614044916125b7565b604085016140519161073c565b6060840161405e9161073c565b6080830161406b91610b16565b60a082016140789161073c565b60c00161408491610322565b565b9190916140e960206140b77f0000000000000000000000000000000000000000000000000000000000000000610463565b6370a08231906140de6140c930611302565b926140d2610302565b95869485938493611359565b835260048301610749565b03915afa908115614993575f91614965575b508061410f6141098461031f565b9161031f565b101561495f5761411f9082611560565b92614167602061413561413061042c565b610463565b6370a082319061415c61414730611302565b92614150610302565b95869485938493611359565b835260048301610749565b03915afa90811561495a575f9161492c575b50936141ca602061419861419361418e610719565b612656565b612662565b6370a08231906141bf6141aa30611302565b926141b3610302565b95869485938493611359565b835260048301610749565b03915afa8015614927576141e8915f916148f9575b509586906113b0565b90816141fc6141f65f61149b565b9161031f565b146148d65761421661420c614c72565b9293909215610b11565b80156148bc575b614899576142419261423161423792615013565b906113b0565b9084915f92613e6a565b6142496112fe565b508061425d6142578461031f565b9161031f565b11155f14614886575050935b8461427c6142765f61149b565b9161031f565b14614863578061429461428e5f61149b565b9161031f565b116147a7575b506142e260206142b06142ab61042c565b610463565b6370a08231906142d76142c230611302565b926142cb610302565b95869485938493611359565b835260048301610749565b03915afa9081156147a2575f91614774575b50806143086143028761031f565b9161031f565b1061476a575b508361432261431c5f61149b565b9161031f565b146147475761438760206143557f0000000000000000000000000000000000000000000000000000000000000000610463565b6370a082319061437c61436730611302565b92614370610302565b95869485938493611359565b835260048301610749565b03915afa908115614742575f91614714575b506143a261042c565b6143aa610880565b86906143b592615037565b6143bd610880565b6143c6906123b8565b6143cf906123c4565b93630dede6c4947f000000000000000000000000000000000000000000000000000000000000000061440090610463565b956144096104c6565b61441290610463565b9061441b611127565b97895f803061442990611302565b918893614434610302565b9d8e986144418a99611359565b8952600489019761445198613fa6565b03815a6040945f91f1801561470f575f809690916146dc575b50948061447f6144795f61149b565b9161031f565b116145b0575b50506144e760206144b57f0000000000000000000000000000000000000000000000000000000000000000610463565b6370a08231906144dc6144c730611302565b926144d0610302565b95869485938493611359565b835260048301610749565b03915afa9081156145ab57614517926145119261450b925f9161457d575b50611560565b9261031f565b9161031f565b1061455a579190916145557f77f1237e0a8d24aa6c53ae5edd184a36bfb5990f087df99edf0da98ba412e1619361454c610302565b93849384611693565b0390a1565b614562610302565b63428637bb60e11b81528061457960048201610803565b0390fd5b61459e915060203d81116145a4575b6145968183611330565b81019061136e565b5f614505565b503d61458c565b61138c565b5f906145d06145c1979394976104c6565b6145c9610880565b8391615037565b6145e86145e36145de610880565b6123b8565b6123c4565b614658836313dcfc5961466382986146066146016104c6565b610463565b906146307f0000000000000000000000000000000000000000000000000000000000000000610463565b614638611127565b9061464230611302565b929361464c610302565b9d8e9b8c9a8b99611359565b89526004890161401e565b03925af180156146d7576146a26146a7916146ad945f916146b5575b5061469c61468c82612519565b6146966001612520565b90611560565b90612550565b612570565b906113b0565b925f80614485565b6146d191503d805f833e6146c98183611330565b81019061247c565b5f61467f565b61138c565b905061470091955060403d8111614708575b6146f88183611330565b810190613f79565b94905f61446a565b503d6146ee565b61138c565b614735915060203d811161473b575b61472d8183611330565b81019061136e565b5f614399565b503d614723565b61138c565b61474f610302565b63bb55fd2760e01b81528061476660048201610803565b0390fd5b909350925f61430e565b614795915060203d811161479b575b61478d8183611330565b81019061136e565b5f6142f4565b503d614783565b61138c565b846147ba6147b48361031f565b9161031f565b11155f1461485e5750835b6147dd6147d86147d3610719565b612656565b612662565b90632e1a7d4d90823b1561485957614814926148095f80946147fd610302565b96879586948593611359565b83526004830161032f565b03925af1801561485457614828575b61429a565b614847905f3d811161484d575b61483f8183611330565b81019061266e565b5f614823565b503d614835565b61138c565b61130e565b6147c5565b61486b610302565b63bb55fd2760e01b81528061488260048201610803565b0390fd5b6148939291600192613e6a565b93614269565b6148a1610302565b633f0ba8e560e01b8152806148b860048201610803565b0390fd5b50816148d06148ca5f61149b565b9161031f565b1461421d565b6148de610302565b63bb55fd2760e01b8152806148f560048201610803565b0390fd5b61491a915060203d8111614920575b6149128183611330565b81019061136e565b5f6141df565b503d614908565b61138c565b61494d915060203d8111614953575b6149458183611330565b81019061136e565b5f614179565b503d61493b565b61138c565b50505050565b614986915060203d811161498c575b61497e8183611330565b81019061136e565b5f6140fb565b503d614974565b61138c565b916149b1916149ab9184916001926154f3565b15610b11565b6149b85750565b6149c46149e291610463565b6149cc610302565b918291635274afe760e01b835260048301610749565b0390fd5b6149ee612331565b614a07614a016149fc61555d565b6105a0565b916105a0565b03614a0e57565b614a37614a1961555d565b614a21610302565b91829163118cdaa760e01b835260048301610749565b0390fd5b614a43615098565b614a4b614a9b565b565b60a01b90565b90614a6260ff60a01b91614a4d565b9181191691161790565b614a7590610b11565b90565b90565b90614a90614a8b614a9792614a6c565b614a78565b8254614a53565b9055565b614aa55f80614a7b565b614aad61555d565b614ae37f5db9ee0a495bf2e6ff9c91a7834c1ba4fdd244a5e8aa4e537bd38aeae4b073aa91614ada610302565b91829182610749565b0390a1565b614af0614a3b565b565b614afb5f61165e565b614b05825f613625565b90614b39614b337f8be0079c531659141344cd1fd0a4f28419497f9722a3daafe3b4186f6b6457e0936105ed565b916105ed565b91614b42610302565b80614b4c81610803565b0390a3565b614b59613f48565b614b61614b63565b565b614b6e60015f614a7b565b614b7661555d565b614bac7f62e78cea01bee320cd4e420270b5ea74000d11b0c9f74754ebdbfc544b05a25891614ba3610302565b91829182610749565b0390a1565b614bb9614b51565b565b614bc4906103f8565b90565b614bd090614bbb565b90565b614bdc90610457565b90565b63ffffffff1690565b614bf181614bdf565b03614bf857565b5f80fd5b90505190614c0982614be8565b565b9091606082840312614c4057614c3d614c26845f850161135f565b93614c34816020860161135f565b93604001614bfc565b90565b61030c565b90505190614c52826105ac565b565b90602082820312614c6d57614c6a915f01614c45565b90565b61030c565b614c7a6112fe565b90614c836112fe565b91614c8c6112fe565b50614c95611bce565b50614cd3614cb1614cac614ca761042c565b610463565b614bc7565b916060614cbd84614bd3565b630902f1ac90614ccb610302565b948592611359565b82528180614ce360048201610803565b03915afa8015614fef575f80939091614fbb575b509194614d1e6020614d0886614bd3565b6318160ddd90614d16610302565b938492611359565b82528180614d2e60048201610803565b03915afa908115614fb6575f91614f88575b509384614d55614d4f5f61149b565b9161031f565b14614f5b57614d7e6020614d6883614bd3565b630dfe168190614d76610302565b938492611359565b82528180614d8e60048201610803565b03915afa8015614f5657614db0602091614dc6935f91614f29575b5093614bd3565b63d21220a790614dbe610302565b938492611359565b82528180614dd660048201610803565b03915afa908115614f24575f91614ef6575b509080614e25614e1f614e1a7f0000000000000000000000000000000000000000000000000000000000000000610463565b6105a0565b916105a0565b1480614ecd575b5f14614e3e575050505092916001905b565b969396614e62614e5c614e57614e526104c6565b610463565b6105a0565b916105a0565b149081614e8a575b505f14614e7e57505092916001905b614e3c565b93915093505f90614e79565b9050614ec6614ec0614ebb7f0000000000000000000000000000000000000000000000000000000000000000610463565b6105a0565b916105a0565b145f614e6a565b5081614ef0614eea614ee5614ee06104c6565b610463565b6105a0565b916105a0565b14614e2c565b614f17915060203d8111614f1d575b614f0f8183611330565b810190614c54565b5f614de8565b503d614f05565b61138c565b614f499150833d8111614f4f575b614f418183611330565b810190614c54565b5f614da9565b503d614f37565b61138c565b505050505090505f905f915f91614f84614f7e614f785f9461149b565b9561149b565b9361149b565b9190565b614fa9915060203d8111614faf575b614fa18183611330565b81019061136e565b5f614d40565b503d614f97565b61138c565b9050614fdf91925060603d8111614fe8575b614fd78183611330565b810190614c0b565b92919092614cf7565b503d614fcd565b61138c565b90565b61500b61500661501092614ff4565b6103f5565b61031f565b90565b6150349061501f6112fe565b5061502e64e8d4a51000614ff7565b906115ce565b90565b916150449291909161556a565b565b92906150639261505d928592919091600193615631565b15610b11565b61506a5750565b61507661509491610463565b61507e610302565b918291635274afe760e01b835260048301610749565b0390fd5b6150a96150a3611bff565b15610b11565b6150af57565b6150b7610302565b638dfc202b60e01b8152806150ce60048201610803565b0390fd5b6150de6150e49161031f565b9161031f565b9081156150ef570490565b6115ba565b90565b61510b615106615110926150f4565b6103f5565b61031f565b90565b61511d60126150f7565b90565b90565b61513761513261513c92615120565b6103f5565b61031f565b90565b6151496011615123565b90565b90615157910361031f565b90565b90615165910261031f565b90565b90565b61517f61517a61518492615168565b6103f5565b61031f565b90565b909291926151936112fe565b5061519f8282906156aa565b91909192826151b66151b05f61149b565b9161031f565b1461536357856151ce6151c88561031f565b9161031f565b111561533157615328928661532e96979361521f936151eb6112fe565b500990858211900394039360018361520c5f615207879161149b565b61514c565b1680809504960493805f0304019061515a565b17916153226153066152e26152be61529a6152766152476003615242899161516b565b61515a565b6152516002612390565b18615270600261526b6152658b859061515a565b91612390565b61514c565b9061515a565b615294600261528f6152898a859061515a565b91612390565b61514c565b9061515a565b6152b860026152b36152ad89859061515a565b91612390565b61514c565b9061515a565b6152dc60026152d76152d188859061515a565b91612390565b61514c565b9061515a565b61530060026152fb6152f587859061515a565b91612390565b61514c565b9061515a565b9161531d615317600292859061515a565b91612390565b61514c565b9061515a565b9061515a565b90565b61535e866153476153415f61149b565b9161031f565b14615350615113565b61535861513f565b916156cf565b6156f3565b5050509161537191926150d2565b90565b634e487b7160e01b5f52602160045260245ffd5b6004111561539257565b615374565b906153a182615388565b565b6153ac90615397565b90565b60ff1690565b6153c96153c46153ce9261238d565b6103f5565b6153af565b90565b6153dd6153e3916153af565b916153af565b9081156153ee570690565b6115ba565b61540761540261540c9261251d565b6103f5565b6153af565b90565b6154246154349161541e611bce565b506153a3565b61542e60026153b5565b906153d1565b61544761544160016153f3565b916153af565b1490565b6154536112fe565b50151590565b615461615703565b61546757565b61546f610302565b633ee5aeb560e01b81528061548660048201610803565b0390fd5b5f90565b90565b90565b6154a86154a36154ad9261548e565b6115f0565b615491565b90565b6154d97f9b779b17422d0df92223018b32b4d1fa46e071723d6817e2486d003becc55f00615494565b90565b6154e461548a565b506154ed6154b0565b90565b90565b9091939293615500611bce565b5063a9059cbb60e01b92604051935f525f1960601c1660045260245260205f60448180855af19360015f511485161561553b575b5050604052565b8492941516615554575f903b113d151616915f80615534565b833d5f823e3d90fd5b61556561232d565b503390565b9161558261557c848484905f92615743565b15610b11565b61558c575b505050565b6155ae6155a88484905f916155a260019361149b565b91615743565b15610b11565b615603576155ca916155c4918491600192615743565b15610b11565b6155d5578080615587565b6155e16155ff91610463565b6155e9610302565b918291635274afe760e01b835260048301610749565b0390fd5b61562d61560f84610463565b615617610302565b918291635274afe760e01b835260048301610749565b0390fd5b91949394929092615640611bce565b506323b872dd60e01b93604051945f525f1960601c166004525f1960601c1660245260445260205f60648180855af19360015f5114851615615688575b50506040525f606052565b84929415166156a1575f903b113d151616915f8061567d565b833d5f823e3d90fd5b906156b36112fe565b506156bc6112fe565b505f198183099102908180821091030391565b6156e96156ef92936156df6112fe565b508094189161544b565b9061515a565b1890565b634e487b715f526020526024601cfd5b61570b611bce565b506157265f61572061571b6154dc565b6154f0565b01610628565b61573f615739615734613ede565b61031f565b9161031f565b1490565b9091939293615750611bce565b5063095ea7b360e01b92604051935f525f1960601c1660045260245260205f60448180855af19360015f511485161561578b575b5050604052565b84929415166157a4575f903b113d151616915f80615784565b833d5f823e3d90fdfea2646970667358221220752ba3f087b5b2dd25e5c720cc2d90c5aa0b2dc80580c5432270de1b9d35149464736f6c63430008180033","linkReferences":{}},"methodIdentifiers":{"AERO_GAUGE()":"2713bf6a","AERO_POOL()":"05547b17","AERO_ROUTER()":"3b9deaae","BOLD()":"0613d952","FEE_DENOMINATOR()":"d73792a9","HARVEST_FEE_BPS()":"d5ee11ee","IS_STABLE_POOL()":"eb3b09fc","SCALE()":"eced5526","WITHDRAW_FEE_BPS()":"4082fa9b","claimRewards(address[])":"f9f031df","compound()":"f69e2046","convertToAssets(uint256)":"07a2d13a","convertToShares(uint256)":"c6e6f592","deposit(uint256)":"b6b55f25","emergencyWithdraw()":"db2e21bc","feeRecipient()":"46904840","harvest(uint256,uint256,uint256)":"284fa344","idleBuffer()":"671d3e00","investAllIdle(uint256,uint256,uint256)":"8ecda782","maxDepositPerTx()":"4e2e8d60","maxPriceDeviationBps()":"79baa1a2","maxStrategyRatio()":"0475bb6a","maxWithdrawPerTx()":"5d926ced","minDeposit()":"41b3d185","owner()":"8da5cb5b","pause()":"8456cb59","paused()":"5c975abb","recoverERC20(address,uint256)":"8980f11f","renounceOwnership()":"715018a6","setFeeRecipient(address)":"e74b981b","setIdleBuffer(uint256)":"d79400f4","setMaxPriceDeviationBps(uint256)":"973bae46","setMaxStrategyRatio(uint256)":"beeb4da9","shares(address)":"ce7c2ac2","totalAssets()":"01e1d114","totalPrincipal()":"4b1533b2","totalShares()":"3a98ef39","transferOwnership(address)":"f2fde38b","unpause()":"3f4ba83a","updateLimits(uint256,uint256,uint256)":"36a0f8a5","usdc()":"3e413bee","userInfo(address)":"1959a002","userPrincipal(address)":"62dab626","userProfit(address)":"67851623","userValue(address)":"90a82112","withdraw(uint256,uint256,uint256,uint256)":"674fb1b4"},"id":36}