{
  "_format": "hh-sol-artifact-1",
  "contractName": "EverestVaultMulti",
  "sourceName": "src/EverestVaultMulti.sol",
  "abi": [
    {
      "inputs": [
        {
          "internalType": "address",
          "name": "_feeRecipient",
          "type": "address"
        }
      ],
      "stateMutability": "nonpayable",
      "type": "constructor"
    },
    {
      "anonymous": false,
      "inputs": [
        {
          "indexed": true,
          "internalType": "address",
          "name": "user",
          "type": "address"
        },
        {
          "indexed": true,
          "internalType": "uint256",
          "name": "vaultId",
          "type": "uint256"
        },
        {
          "indexed": false,
          "internalType": "uint256",
          "name": "amount",
          "type": "uint256"
        },
        {
          "indexed": false,
          "internalType": "uint256",
          "name": "newDebt",
          "type": "uint256"
        }
      ],
      "name": "Borrowed",
      "type": "event"
    },
    {
      "anonymous": false,
      "inputs": [
        {
          "indexed": true,
          "internalType": "address",
          "name": "user",
          "type": "address"
        },
        {
          "indexed": true,
          "internalType": "uint256",
          "name": "vaultId",
          "type": "uint256"
        },
        {
          "indexed": false,
          "internalType": "uint256",
          "name": "amountIn",
          "type": "uint256"
        },
        {
          "indexed": false,
          "internalType": "uint256",
          "name": "collateralAdded",
          "type": "uint256"
        },
        {
          "indexed": false,
          "internalType": "uint256",
          "name": "feePaid",
          "type": "uint256"
        }
      ],
      "name": "Deposited",
      "type": "event"
    },
    {
      "anonymous": false,
      "inputs": [
        {
          "indexed": true,
          "internalType": "address",
          "name": "previousOwner",
          "type": "address"
        },
        {
          "indexed": true,
          "internalType": "address",
          "name": "newOwner",
          "type": "address"
        }
      ],
      "name": "OwnershipTransferred",
      "type": "event"
    },
    {
      "anonymous": false,
      "inputs": [
        {
          "indexed": false,
          "internalType": "address",
          "name": "account",
          "type": "address"
        }
      ],
      "name": "Paused",
      "type": "event"
    },
    {
      "anonymous": false,
      "inputs": [
        {
          "indexed": true,
          "internalType": "address",
          "name": "user",
          "type": "address"
        },
        {
          "indexed": true,
          "internalType": "uint256",
          "name": "vaultId",
          "type": "uint256"
        },
        {
          "indexed": false,
          "internalType": "uint256",
          "name": "amount",
          "type": "uint256"
        },
        {
          "indexed": false,
          "internalType": "uint256",
          "name": "remainingDebt",
          "type": "uint256"
        }
      ],
      "name": "Repaid",
      "type": "event"
    },
    {
      "anonymous": false,
      "inputs": [
        {
          "indexed": false,
          "internalType": "address",
          "name": "account",
          "type": "address"
        }
      ],
      "name": "Unpaused",
      "type": "event"
    },
    {
      "anonymous": false,
      "inputs": [
        {
          "indexed": true,
          "internalType": "address",
          "name": "user",
          "type": "address"
        },
        {
          "indexed": true,
          "internalType": "uint256",
          "name": "vaultId",
          "type": "uint256"
        }
      ],
      "name": "VaultCreated",
      "type": "event"
    },
    {
      "anonymous": false,
      "inputs": [
        {
          "indexed": true,
          "internalType": "address",
          "name": "user",
          "type": "address"
        },
        {
          "indexed": true,
          "internalType": "uint256",
          "name": "vaultId",
          "type": "uint256"
        },
        {
          "indexed": false,
          "internalType": "uint256",
          "name": "collateralRemoved",
          "type": "uint256"
        },
        {
          "indexed": false,
          "internalType": "uint256",
          "name": "amountOut",
          "type": "uint256"
        },
        {
          "indexed": false,
          "internalType": "uint256",
          "name": "feePaid",
          "type": "uint256"
        }
      ],
      "name": "Withdrawn",
      "type": "event"
    },
    {
      "stateMutability": "payable",
      "type": "fallback"
    },
    {
      "inputs": [],
      "name": "BPS_DENOMINATOR",
      "outputs": [
        {
          "internalType": "uint256",
          "name": "",
          "type": "uint256"
        }
      ],
      "stateMutability": "view",
      "type": "function"
    },
    {
      "inputs": [],
      "name": "FEE_BPS",
      "outputs": [
        {
          "internalType": "uint256",
          "name": "",
          "type": "uint256"
        }
      ],
      "stateMutability": "view",
      "type": "function"
    },
    {
      "inputs": [],
      "name": "MAX_LTV_BPS",
      "outputs": [
        {
          "internalType": "uint256",
          "name": "",
          "type": "uint256"
        }
      ],
      "stateMutability": "view",
      "type": "function"
    },
    {
      "inputs": [
        {
          "internalType": "uint256",
          "name": "vaultId",
          "type": "uint256"
        },
        {
          "internalType": "uint256",
          "name": "amount",
          "type": "uint256"
        }
      ],
      "name": "borrow",
      "outputs": [],
      "stateMutability": "nonpayable",
      "type": "function"
    },
    {
      "inputs": [],
      "name": "createVault",
      "outputs": [
        {
          "internalType": "uint256",
          "name": "vaultId",
          "type": "uint256"
        }
      ],
      "stateMutability": "nonpayable",
      "type": "function"
    },
    {
      "inputs": [
        {
          "internalType": "address",
          "name": "user",
          "type": "address"
        },
        {
          "internalType": "uint256",
          "name": "vaultId",
          "type": "uint256"
        }
      ],
      "name": "currentMaxBorrow",
      "outputs": [
        {
          "internalType": "uint256",
          "name": "",
          "type": "uint256"
        }
      ],
      "stateMutability": "view",
      "type": "function"
    },
    {
      "inputs": [
        {
          "internalType": "uint256",
          "name": "vaultId",
          "type": "uint256"
        }
      ],
      "name": "deposit",
      "outputs": [],
      "stateMutability": "payable",
      "type": "function"
    },
    {
      "inputs": [],
      "name": "feeRecipient",
      "outputs": [
        {
          "internalType": "address",
          "name": "",
          "type": "address"
        }
      ],
      "stateMutability": "view",
      "type": "function"
    },
    {
      "inputs": [
        {
          "internalType": "address",
          "name": "user",
          "type": "address"
        },
        {
          "internalType": "uint256",
          "name": "vaultId",
          "type": "uint256"
        }
      ],
      "name": "getVault",
      "outputs": [
        {
          "internalType": "uint256",
          "name": "collateral",
          "type": "uint256"
        },
        {
          "internalType": "uint256",
          "name": "debt",
          "type": "uint256"
        }
      ],
      "stateMutability": "view",
      "type": "function"
    },
    {
      "inputs": [
        {
          "internalType": "address",
          "name": "",
          "type": "address"
        }
      ],
      "name": "lastBorrowBlock",
      "outputs": [
        {
          "internalType": "uint256",
          "name": "",
          "type": "uint256"
        }
      ],
      "stateMutability": "view",
      "type": "function"
    },
    {
      "inputs": [
        {
          "internalType": "uint256",
          "name": "collateralAmount",
          "type": "uint256"
        }
      ],
      "name": "maxBorrowable",
      "outputs": [
        {
          "internalType": "uint256",
          "name": "",
          "type": "uint256"
        }
      ],
      "stateMutability": "pure",
      "type": "function"
    },
    {
      "inputs": [],
      "name": "owner",
      "outputs": [
        {
          "internalType": "address",
          "name": "",
          "type": "address"
        }
      ],
      "stateMutability": "view",
      "type": "function"
    },
    {
      "inputs": [],
      "name": "pause",
      "outputs": [],
      "stateMutability": "nonpayable",
      "type": "function"
    },
    {
      "inputs": [],
      "name": "paused",
      "outputs": [
        {
          "internalType": "bool",
          "name": "",
          "type": "bool"
        }
      ],
      "stateMutability": "view",
      "type": "function"
    },
    {
      "inputs": [],
      "name": "renounceOwnership",
      "outputs": [],
      "stateMutability": "nonpayable",
      "type": "function"
    },
    {
      "inputs": [
        {
          "internalType": "uint256",
          "name": "vaultId",
          "type": "uint256"
        }
      ],
      "name": "repay",
      "outputs": [],
      "stateMutability": "payable",
      "type": "function"
    },
    {
      "inputs": [],
      "name": "totalCollateral",
      "outputs": [
        {
          "internalType": "uint256",
          "name": "",
          "type": "uint256"
        }
      ],
      "stateMutability": "view",
      "type": "function"
    },
    {
      "inputs": [],
      "name": "totalDebt",
      "outputs": [
        {
          "internalType": "uint256",
          "name": "",
          "type": "uint256"
        }
      ],
      "stateMutability": "view",
      "type": "function"
    },
    {
      "inputs": [
        {
          "internalType": "address",
          "name": "newOwner",
          "type": "address"
        }
      ],
      "name": "transferOwnership",
      "outputs": [],
      "stateMutability": "nonpayable",
      "type": "function"
    },
    {
      "inputs": [],
      "name": "unpause",
      "outputs": [],
      "stateMutability": "nonpayable",
      "type": "function"
    },
    {
      "inputs": [
        {
          "internalType": "address",
          "name": "user",
          "type": "address"
        }
      ],
      "name": "vaultCountOf",
      "outputs": [
        {
          "internalType": "uint256",
          "name": "",
          "type": "uint256"
        }
      ],
      "stateMutability": "view",
      "type": "function"
    },
    {
      "inputs": [
        {
          "internalType": "uint256",
          "name": "vaultId",
          "type": "uint256"
        },
        {
          "internalType": "uint256",
          "name": "collateralAmount",
          "type": "uint256"
        }
      ],
      "name": "withdraw",
      "outputs": [],
      "stateMutability": "nonpayable",
      "type": "function"
    },
    {
      "stateMutability": "payable",
      "type": "receive"
    }
  ],
  "bytecode": "0x60a060405234801561001057600080fd5b5060405161161438038061161483398101604081905261002f916100f8565b610038336100a8565b6000805460ff60a01b19169055600180556001600160a01b0381166100975760405162461bcd60e51b8152602060048201526011602482015270666565526563697069656e74207a65726f60781b604482015260640160405180910390fd5b6001600160a01b0316608052610128565b600080546001600160a01b038381166001600160a01b0319831681178455604051919092169283917f8be0079c531659141344cd1fd0a4f28419497f9722a3daafe3b4186f6b6457e09190a35050565b60006020828403121561010a57600080fd5b81516001600160a01b038116811461012157600080fd5b9392505050565b6080516114c36101516000396000818161025b01528181610b110152610ef401526114c36000f3fe6080604052600436106101395760003560e01c80638da5cb5b116100ab578063c957d7a41161006f578063c957d7a4146103a7578063d99d13f5146103c7578063e1a4521814610427578063e72d5eb01461043d578063f2fde38b14610473578063fc7b9c18146104935761017f565b80638da5cb5b14610314578063ac3083d814610332578063b59ec47814610352578063b6b55f251461037f578063bf333f2c146103925761017f565b806346904840116100fd57806346904840146102495780634ac8eb5f146102955780635c975abb146102ab5780635d12928b146102d5578063715018a6146102ea5780638456cb59146102ff5761017f565b80630ecbcdab146101b65780631bfaae1d146101d8578063371fd8e6146102015780633f4ba83a14610214578063441a3e70146102295761017f565b3661017f5760405162461bcd60e51b8152602060048201526011602482015270557365206465706f7369742f726570617960781b60448201526064015b60405180910390fd5b60405162461bcd60e51b815260206004820152600c60248201526b125b9d985b1a590818d85b1b60a21b6044820152606401610176565b3480156101c257600080fd5b506101d66101d1366004611347565b6104a9565b005b3480156101e457600080fd5b506101ee611b5881565b6040519081526020015b60405180910390f35b6101d661020f366004611369565b610744565b34801561022057600080fd5b506101d6610976565b34801561023557600080fd5b506101d6610244366004611347565b610988565b34801561025557600080fd5b5061027d7f000000000000000000000000000000000000000000000000000000000000000081565b6040516001600160a01b0390911681526020016101f8565b3480156102a157600080fd5b506101ee60055481565b3480156102b757600080fd5b50600054600160a01b900460ff1660405190151581526020016101f8565b3480156102e157600080fd5b506101ee610ca8565b3480156102f657600080fd5b506101d6610d0c565b34801561030b57600080fd5b506101d6610d1e565b34801561032057600080fd5b506000546001600160a01b031661027d565b34801561033e57600080fd5b506101ee61034d366004611369565b610d2e565b34801561035e57600080fd5b506101ee61036d36600461139e565b60046020526000908152604090205481565b6101d661038d366004611369565b610d4f565b34801561039e57600080fd5b506101ee601981565b3480156103b357600080fd5b506101ee6103c23660046113c0565b610fed565b3480156103d357600080fd5b506104126103e23660046113c0565b6001600160a01b039190911660009081526003602090815260408083209383529290522080546001909101549091565b604080519283526020830191909152016101f8565b34801561043357600080fd5b506101ee61271081565b34801561044957600080fd5b506101ee61045836600461139e565b6001600160a01b031660009081526002602052604090205490565b34801561047f57600080fd5b506101d661048e36600461139e565b611061565b34801561049f57600080fd5b506101ee60065481565b6104b16110d7565b6104b9611124565b600081116104f65760405162461bcd60e51b815260206004820152600a6024820152690416d6f756e74203d20360b41b6044820152606401610176565b3360009081526002602052604090205482106105245760405162461bcd60e51b8152600401610176906113ea565b3360009081526003602090815260408083208584529091529020805461057c5760405162461bcd60e51b815260206004820152600d60248201526c139bc818dbdb1b185d195c985b609a1b6044820152606401610176565b3360009081526004602052604090205443116105d25760405162461bcd60e51b8152602060048201526015602482015274426f72726f77206f6e63652070657220626c6f636b60581b6044820152606401610176565b3360009081526004602052604081204390556001820180548492906105f890849061142e565b90915550508054600182015461060e919061117d565b61064d5760405162461bcd60e51b815260206004820152601060248201526f13585e0813151588195e18d95959195960821b6044820152606401610176565b816006600082825461065f919061142e565b9091555050604051600090339084908381818185875af1925050503d80600081146106a6576040519150601f19603f3d011682016040523d82523d6000602084013e6106ab565b606091505b50509050806106f25760405162461bcd60e51b8152602060048201526013602482015272115512081d1c985b9cd9995c8819985a5b1959606a1b6044820152606401610176565b6001820154604080518581526020810192909252859133917fc4381c9c7b508979896c55381c1cb8c2aef28d753cff7661f9cd87b9a14584f8910160405180910390a3505061074060018055565b5050565b61074c611124565b6000341161078a5760405162461bcd60e51b815260206004820152600b60248201526a139bc8115512081cd95b9d60aa1b6044820152606401610176565b3360009081526002602052604090205481106107b85760405162461bcd60e51b8152600401610176906113ea565b3360009081526003602090815260408083208484529091529020600181015461080d5760405162461bcd60e51b8152602060048201526007602482015266139bc81919589d60ca1b6044820152606401610176565b6001810154349081106108f257600082600101548261082c9190611441565b90508260010154600660008282546108449190611441565b90915550506000600184015580156108ec57604051600090339083908381818185875af1925050503d8060008114610898576040519150601f19603f3d011682016040523d82523d6000602084013e61089d565b606091505b50509050806108de5760405162461bcd60e51b815260206004820152600d60248201526c1499599d5b990819985a5b1959609a1b6044820152606401610176565b6108e88284611441565b9250505b50610925565b808260010160008282546109069190611441565b92505081905550806006600082825461091f9190611441565b90915550505b6001820154604080518381526020810192909252849133917f07178c166b5aef4d8409e6bbfd0e7b1ad42c92eb65903a5e5482166f3f4e62f0910160405180910390a3505061097360018055565b50565b61097e6111b5565b61098661120f565b565b6109906110d7565b610998611124565b600081116109d55760405162461bcd60e51b815260206004820152600a6024820152690416d6f756e74203d20360b41b6044820152606401610176565b336000908152600260205260409020548210610a035760405162461bcd60e51b8152600401610176906113ea565b33600090815260036020908152604080832085845290915290208054821115610a665760405162461bcd60e51b8152602060048201526015602482015274139bdd08195b9bdd59da0818dbdb1b185d195c985b605a1b6044820152606401610176565b8054600090610a76908490611441565b9050610a8681836001015461117d565b610ac55760405162461bcd60e51b815260206004820152601060248201526f13585e0813151588195e18d95959195960821b6044820152606401610176565b80825560058054849190600090610add908490611441565b9091555060009050612710610af3601986611454565b610afd919061146b565b90506000610b0b8286611441565b905060007f00000000000000000000000000000000000000000000000000000000000000006001600160a01b03168360405160006040518083038185875af1925050503d8060008114610b7a576040519150601f19603f3d011682016040523d82523d6000602084013e610b7f565b606091505b5050905080610bc65760405162461bcd60e51b8152602060048201526013602482015272119959481d1c985b9cd9995c8819985a5b1959606a1b6044820152606401610176565b604051600090339084908381818185875af1925050503d8060008114610c08576040519150601f19603f3d011682016040523d82523d6000602084013e610c0d565b606091505b5050905080610c545760405162461bcd60e51b8152602060048201526013602482015272115512081d1c985b9cd9995c8819985a5b1959606a1b6044820152606401610176565b6040805188815260208101859052908101859052889033907f94ffd6b85c71b847775c89ef6496b93cee961bdc6ff827fd117f174f06f745ae9060600160405180910390a350505050505061074060018055565b6000610cb26110d7565b5033600090815260026020526040902054610cce81600161142e565b3360008181526002602052604080822093909355915183927fa510df27d6e51efd91d3f55722bad1f26bf924a63e5dcee07c2ab4c3d4992dcc91a390565b610d146111b5565b6109866000611264565b610d266111b5565b6109866112b4565b6000612710610d3f611b5884611454565b610d49919061146b565b92915050565b610d576110d7565b610d5f611124565b60003411610d9d5760405162461bcd60e51b815260206004820152600b60248201526a139bc8115512081cd95b9d60aa1b6044820152606401610176565b336000908152600260205260409020548110610dcb5760405162461bcd60e51b8152600401610176906113ea565b33600090815260046020526040902054439003610e2a5760405162461bcd60e51b815260206004820152601960248201527f426f72726f772b6465706f7369742073616d6520626c6f636b000000000000006044820152606401610176565b6000612710610e3a601934611454565b610e44919061146b565b90506000610e528234611441565b905060008111610e985760405162461bcd60e51b815260206004820152601160248201527011195c1bdcda5d081d1bdbc81cdb585b1b607a1b6044820152606401610176565b3360009081526003602090815260408083208684529091528120805490918391839190610ec690849061142e565b925050819055508160056000828254610edf919061142e565b90915550506040516000906001600160a01b037f0000000000000000000000000000000000000000000000000000000000000000169085908381818185875af1925050503d8060008114610f4f576040519150601f19603f3d011682016040523d82523d6000602084013e610f54565b606091505b5050905080610f9b5760405162461bcd60e51b8152602060048201526013602482015272119959481d1c985b9cd9995c8819985a5b1959606a1b6044820152606401610176565b6040805134815260208101859052908101859052859033907fe3b53cd1a44fbf11535e145d80b8ef1ed6d57a73bf5daa7e939b6b01657d65499060600160405180910390a35050505061097360018055565b6001600160a01b0382166000908152600360209081526040808320848452909152812080548203611022576000915050610d49565b60006110318260000154610d2e565b90508082600101541061104957600092505050610d49565b60018201546110589082611441565b95945050505050565b6110696111b5565b6001600160a01b0381166110ce5760405162461bcd60e51b815260206004820152602660248201527f4f776e61626c653a206e6577206f776e657220697320746865207a65726f206160448201526564647265737360d01b6064820152608401610176565b61097381611264565b600054600160a01b900460ff16156109865760405162461bcd60e51b815260206004820152601060248201526f14185d5cd8589b194e881c185d5cd95960821b6044820152606401610176565b6002600154036111765760405162461bcd60e51b815260206004820152601f60248201527f5265656e7472616e637947756172643a207265656e7472616e742063616c6c006044820152606401610176565b6002600155565b60008160000361118f57506001610d49565b8260000361119f57506000610d49565b60006111aa84610d2e565b909211159392505050565b6000546001600160a01b031633146109865760405162461bcd60e51b815260206004820181905260248201527f4f776e61626c653a2063616c6c6572206973206e6f7420746865206f776e65726044820152606401610176565b6112176112f7565b6000805460ff60a01b191690557f5db9ee0a495bf2e6ff9c91a7834c1ba4fdd244a5e8aa4e537bd38aeae4b073aa335b6040516001600160a01b03909116815260200160405180910390a1565b600080546001600160a01b038381166001600160a01b0319831681178455604051919092169283917f8be0079c531659141344cd1fd0a4f28419497f9722a3daafe3b4186f6b6457e09190a35050565b6112bc6110d7565b6000805460ff60a01b1916600160a01b1790557f62e78cea01bee320cd4e420270b5ea74000d11b0c9f74754ebdbfc544b05a2586112473390565b600054600160a01b900460ff166109865760405162461bcd60e51b815260206004820152601460248201527314185d5cd8589b194e881b9bdd081c185d5cd95960621b6044820152606401610176565b6000806040838503121561135a57600080fd5b50508035926020909101359150565b60006020828403121561137b57600080fd5b5035919050565b80356001600160a01b038116811461139957600080fd5b919050565b6000602082840312156113b057600080fd5b6113b982611382565b9392505050565b600080604083850312156113d357600080fd5b6113dc83611382565b946020939093013593505050565b60208082526014908201527315985d5b1d08191bd95cc81b9bdd08195e1a5cdd60621b604082015260600190565b634e487b7160e01b600052601160045260246000fd5b80820180821115610d4957610d49611418565b81810381811115610d4957610d49611418565b8082028115828204841417610d4957610d49611418565b60008261148857634e487b7160e01b600052601260045260246000fd5b50049056fea2646970667358221220be95278362c73b33ea161b75b5b252809d2b8eeceb755421d350977ae4b28a0d64736f6c63430008180033",
  "linkReferences": {},
  "deployedLinkReferences": {}
}