{
  "_format": "hh-sol-artifact-1",
  "contractName": "EverestVault",
  "sourceName": "src/EverestVault.sol",
  "abi": [
    {
      "inputs": [
        {
          "internalType": "address",
          "name": "_feeRecipient",
          "type": "address"
        }
      ],
      "stateMutability": "nonpayable",
      "type": "constructor"
    },
    {
      "inputs": [],
      "name": "BorrowDepositSameBlock",
      "type": "error"
    },
    {
      "inputs": [],
      "name": "ExceedsBorrowLimit",
      "type": "error"
    },
    {
      "inputs": [],
      "name": "InsufficientCollateral",
      "type": "error"
    },
    {
      "inputs": [],
      "name": "PausedError",
      "type": "error"
    },
    {
      "inputs": [],
      "name": "TransferFailed",
      "type": "error"
    },
    {
      "inputs": [],
      "name": "ZeroAddress",
      "type": "error"
    },
    {
      "inputs": [],
      "name": "ZeroAmount",
      "type": "error"
    },
    {
      "anonymous": false,
      "inputs": [
        {
          "indexed": true,
          "internalType": "address",
          "name": "user",
          "type": "address"
        },
        {
          "indexed": false,
          "internalType": "uint256",
          "name": "amount",
          "type": "uint256"
        }
      ],
      "name": "Borrowed",
      "type": "event"
    },
    {
      "anonymous": false,
      "inputs": [
        {
          "indexed": true,
          "internalType": "address",
          "name": "user",
          "type": "address"
        },
        {
          "indexed": false,
          "internalType": "uint256",
          "name": "grossAmount",
          "type": "uint256"
        },
        {
          "indexed": false,
          "internalType": "uint256",
          "name": "fee",
          "type": "uint256"
        },
        {
          "indexed": false,
          "internalType": "uint256",
          "name": "netCollateral",
          "type": "uint256"
        }
      ],
      "name": "Deposited",
      "type": "event"
    },
    {
      "anonymous": false,
      "inputs": [
        {
          "indexed": true,
          "internalType": "address",
          "name": "newFeeRecipient",
          "type": "address"
        }
      ],
      "name": "FeeRecipientUpdated",
      "type": "event"
    },
    {
      "anonymous": false,
      "inputs": [
        {
          "indexed": true,
          "internalType": "address",
          "name": "newGuardian",
          "type": "address"
        }
      ],
      "name": "GuardianUpdated",
      "type": "event"
    },
    {
      "anonymous": false,
      "inputs": [
        {
          "indexed": true,
          "internalType": "address",
          "name": "previousOwner",
          "type": "address"
        },
        {
          "indexed": true,
          "internalType": "address",
          "name": "newOwner",
          "type": "address"
        }
      ],
      "name": "OwnershipTransferred",
      "type": "event"
    },
    {
      "anonymous": false,
      "inputs": [
        {
          "indexed": true,
          "internalType": "address",
          "name": "by",
          "type": "address"
        }
      ],
      "name": "Paused",
      "type": "event"
    },
    {
      "anonymous": false,
      "inputs": [
        {
          "indexed": true,
          "internalType": "address",
          "name": "user",
          "type": "address"
        },
        {
          "indexed": false,
          "internalType": "uint256",
          "name": "amount",
          "type": "uint256"
        },
        {
          "indexed": false,
          "internalType": "uint256",
          "name": "refund",
          "type": "uint256"
        }
      ],
      "name": "Repaid",
      "type": "event"
    },
    {
      "anonymous": false,
      "inputs": [
        {
          "indexed": true,
          "internalType": "address",
          "name": "by",
          "type": "address"
        }
      ],
      "name": "Unpaused",
      "type": "event"
    },
    {
      "anonymous": false,
      "inputs": [
        {
          "indexed": true,
          "internalType": "address",
          "name": "user",
          "type": "address"
        },
        {
          "indexed": false,
          "internalType": "uint256",
          "name": "requestedAmount",
          "type": "uint256"
        },
        {
          "indexed": false,
          "internalType": "uint256",
          "name": "fee",
          "type": "uint256"
        },
        {
          "indexed": false,
          "internalType": "uint256",
          "name": "netToUser",
          "type": "uint256"
        }
      ],
      "name": "Withdrawn",
      "type": "event"
    },
    {
      "inputs": [],
      "name": "FEE_BPS",
      "outputs": [
        {
          "internalType": "uint16",
          "name": "",
          "type": "uint16"
        }
      ],
      "stateMutability": "view",
      "type": "function"
    },
    {
      "inputs": [],
      "name": "LTV_BPS",
      "outputs": [
        {
          "internalType": "uint16",
          "name": "",
          "type": "uint16"
        }
      ],
      "stateMutability": "view",
      "type": "function"
    },
    {
      "inputs": [
        {
          "internalType": "address",
          "name": "user",
          "type": "address"
        }
      ],
      "name": "availableToBorrow",
      "outputs": [
        {
          "internalType": "uint256",
          "name": "",
          "type": "uint256"
        }
      ],
      "stateMutability": "view",
      "type": "function"
    },
    {
      "inputs": [
        {
          "internalType": "uint256",
          "name": "amount",
          "type": "uint256"
        }
      ],
      "name": "borrow",
      "outputs": [],
      "stateMutability": "nonpayable",
      "type": "function"
    },
    {
      "inputs": [
        {
          "internalType": "address",
          "name": "user",
          "type": "address"
        }
      ],
      "name": "borrowLimit",
      "outputs": [
        {
          "internalType": "uint256",
          "name": "",
          "type": "uint256"
        }
      ],
      "stateMutability": "view",
      "type": "function"
    },
    {
      "inputs": [
        {
          "internalType": "address",
          "name": "",
          "type": "address"
        }
      ],
      "name": "collateral",
      "outputs": [
        {
          "internalType": "uint256",
          "name": "",
          "type": "uint256"
        }
      ],
      "stateMutability": "view",
      "type": "function"
    },
    {
      "inputs": [
        {
          "internalType": "address",
          "name": "",
          "type": "address"
        }
      ],
      "name": "debt",
      "outputs": [
        {
          "internalType": "uint256",
          "name": "",
          "type": "uint256"
        }
      ],
      "stateMutability": "view",
      "type": "function"
    },
    {
      "inputs": [],
      "name": "deposit",
      "outputs": [],
      "stateMutability": "payable",
      "type": "function"
    },
    {
      "inputs": [],
      "name": "feeRecipient",
      "outputs": [
        {
          "internalType": "address",
          "name": "",
          "type": "address"
        }
      ],
      "stateMutability": "view",
      "type": "function"
    },
    {
      "inputs": [
        {
          "internalType": "address",
          "name": "user",
          "type": "address"
        }
      ],
      "name": "getUserData",
      "outputs": [
        {
          "internalType": "uint256",
          "name": "_collateral",
          "type": "uint256"
        },
        {
          "internalType": "uint256",
          "name": "_debt",
          "type": "uint256"
        },
        {
          "internalType": "uint256",
          "name": "_maxBorrow",
          "type": "uint256"
        },
        {
          "internalType": "uint256",
          "name": "_available",
          "type": "uint256"
        }
      ],
      "stateMutability": "view",
      "type": "function"
    },
    {
      "inputs": [],
      "name": "guardian",
      "outputs": [
        {
          "internalType": "address",
          "name": "",
          "type": "address"
        }
      ],
      "stateMutability": "view",
      "type": "function"
    },
    {
      "inputs": [
        {
          "internalType": "address",
          "name": "",
          "type": "address"
        }
      ],
      "name": "lastBorrowBlock",
      "outputs": [
        {
          "internalType": "uint256",
          "name": "",
          "type": "uint256"
        }
      ],
      "stateMutability": "view",
      "type": "function"
    },
    {
      "inputs": [],
      "name": "owner",
      "outputs": [
        {
          "internalType": "address",
          "name": "",
          "type": "address"
        }
      ],
      "stateMutability": "view",
      "type": "function"
    },
    {
      "inputs": [],
      "name": "pause",
      "outputs": [],
      "stateMutability": "nonpayable",
      "type": "function"
    },
    {
      "inputs": [],
      "name": "paused",
      "outputs": [
        {
          "internalType": "bool",
          "name": "",
          "type": "bool"
        }
      ],
      "stateMutability": "view",
      "type": "function"
    },
    {
      "inputs": [],
      "name": "renounceOwnership",
      "outputs": [],
      "stateMutability": "nonpayable",
      "type": "function"
    },
    {
      "inputs": [],
      "name": "repay",
      "outputs": [],
      "stateMutability": "payable",
      "type": "function"
    },
    {
      "inputs": [
        {
          "internalType": "address",
          "name": "_feeRecipient",
          "type": "address"
        }
      ],
      "name": "setFeeRecipient",
      "outputs": [],
      "stateMutability": "nonpayable",
      "type": "function"
    },
    {
      "inputs": [
        {
          "internalType": "address",
          "name": "_guardian",
          "type": "address"
        }
      ],
      "name": "setGuardian",
      "outputs": [],
      "stateMutability": "nonpayable",
      "type": "function"
    },
    {
      "inputs": [
        {
          "internalType": "address",
          "name": "newOwner",
          "type": "address"
        }
      ],
      "name": "transferOwnership",
      "outputs": [],
      "stateMutability": "nonpayable",
      "type": "function"
    },
    {
      "inputs": [],
      "name": "unpause",
      "outputs": [],
      "stateMutability": "nonpayable",
      "type": "function"
    },
    {
      "inputs": [
        {
          "internalType": "uint256",
          "name": "amount",
          "type": "uint256"
        }
      ],
      "name": "withdraw",
      "outputs": [],
      "stateMutability": "nonpayable",
      "type": "function"
    },
    {
      "stateMutability": "payable",
      "type": "receive"
    }
  ],
  "bytecode": "0x608060405234801561001057600080fd5b506040516110b93803806110b983398101604081905261002f916100d8565b61003833610088565b600180556001600160a01b0381166100635760405163d92e233d60e01b815260040160405180910390fd5b600380546001600160a01b0319166001600160a01b0392909216919091179055610108565b600080546001600160a01b038381166001600160a01b0319831681178455604051919092169283917f8be0079c531659141344cd1fd0a4f28419497f9722a3daafe3b4186f6b6457e09190a35050565b6000602082840312156100ea57600080fd5b81516001600160a01b038116811461010157600080fd5b9392505050565b610fa2806101176000396000f3fe6080604052600436106101395760003560e01c80638da5cb5b116100ab578063c5ebeaec1161006f578063c5ebeaec14610377578063d0e30db014610397578063e74b981b1461039f578063f2fde38b146103bf578063fae3706f146103df578063ffc9896b146103f557600080fd5b80638da5cb5b146102aa5780639b6c56ec146102c8578063a5fdc5de146102f5578063b59ec47814610322578063bf333f2c1461034f57600080fd5b8063452a9320116100fd578063452a9320146101d7578063469048401461020f5780635c975abb1461022f578063715018a6146102605780638456cb59146102755780638a0dac4a1461028a57600080fd5b806328f5f502146101455780632c38199e146101785780632e1a7d4d146101985780633f4ba83a146101ba578063402d8883146101cf57600080fd5b3661014057005b600080fd5b34801561015157600080fd5b50610165610160366004610eae565b610435565b6040519081526020015b60405180910390f35b34801561018457600080fd5b50610165610193366004610eae565b61046f565b3480156101a457600080fd5b506101b86101b3366004610ede565b6104b9565b005b3480156101c657600080fd5b506101b861064e565b6101b86106f1565b3480156101e357600080fd5b506002546101f7906001600160a01b031681565b6040516001600160a01b03909116815260200161016f565b34801561021b57600080fd5b506003546101f7906001600160a01b031681565b34801561023b57600080fd5b5060035461025090600160a01b900460ff1681565b604051901515815260200161016f565b34801561026c57600080fd5b506101b861088a565b34801561028157600080fd5b506101b861089c565b34801561029657600080fd5b506101b86102a5366004610eae565b610940565b3480156102b657600080fd5b506000546001600160a01b03166101f7565b3480156102d457600080fd5b506101656102e3366004610eae565b60056020526000908152604090205481565b34801561030157600080fd5b50610165610310366004610eae565b60046020526000908152604090205481565b34801561032e57600080fd5b5061016561033d366004610eae565b60066020526000908152604090205481565b34801561035b57600080fd5b50610364601981565b60405161ffff909116815260200161016f565b34801561038357600080fd5b506101b8610392366004610ede565b6109b9565b6101b8610ac1565b3480156103ab57600080fd5b506101b86103ba366004610eae565b610bff565b3480156103cb57600080fd5b506101b86103da366004610eae565b610c78565b3480156103eb57600080fd5b50610364611b5881565b34801561040157600080fd5b50610415610410366004610eae565b610cee565b60408051948552602085019390935291830152606082015260800161016f565b6001600160a01b0381166000908152600460205260408120546127109061045f90611b5890610f0d565b6104699190610f24565b92915050565b60008061047b83610435565b6001600160a01b038416600090815260056020526040902054909150818110156104ae576104a98183610f46565b6104b1565b60005b949350505050565b6104c1610d32565b600354600160a01b900460ff16156104ec57604051633b3b4caf60e21b815260040160405180910390fd5b8060000361050d57604051631f2a200560e01b815260040160405180910390fd5b336000908152600460205260409020548082111561053e57604051633a23d82560e01b815260040160405180910390fd5b600061054a8383610f46565b9050600061271061055d611b5884610f0d565b6105679190610f24565b3360009081526005602052604090205490915081101561059a576040516397ba4de360e01b815260040160405180910390fd5b3360009081526004602052604081208390556127106105ba601987610f0d565b6105c49190610f24565b905060006105d28287610f46565b905081156105f0576003546105f0906001600160a01b031683610d8b565b6105fa3382610d8b565b604080518781526020810184905290810182905233907f75e161b3e824b114fc1a33274bd7091918dd4e639cede50b78b15a4eea956a219060600160405180910390a2505050505061064b60018055565b50565b6000546001600160a01b031633148061067157506002546001600160a01b031633145b6106b75760405162461bcd60e51b81526020600482015260126024820152712737ba1033bab0b93234b0b717b7bbb732b960711b60448201526064015b60405180910390fd5b6003805460ff60a01b1916905560405133907f5db9ee0a495bf2e6ff9c91a7834c1ba4fdd244a5e8aa4e537bd38aeae4b073aa90600090a2565b6106f9610d32565b600354600160a01b900460ff161561072457604051633b3b4caf60e21b815260040160405180910390fd5b3460000361074557604051631f2a200560e01b815260040160405180910390fd5b33600090815260056020526040812054908190036107a8576107673334610d8b565b604080516000815234602082015233917f1b8cd61ed43bec7c6bdad3a18ffee613f99c853d16c50678d248d879e1b43438910160405180910390a25061087f565b80341061081e5760006107bb8234610f46565b33600090815260056020526040812055905080156107dd576107dd3382610d8b565b604080518381526020810183905233917f1b8cd61ed43bec7c6bdad3a18ffee613f99c853d16c50678d248d879e1b43438910160405180910390a25061087d565b6108283482610f46565b3360008181526005602052604080822093909355915190917f1b8cd61ed43bec7c6bdad3a18ffee613f99c853d16c50678d248d879e1b434389161087491348252602082015260400190565b60405180910390a25b505b61088860018055565b565b610892610e04565b6108886000610e5e565b6000546001600160a01b03163314806108bf57506002546001600160a01b031633145b6109005760405162461bcd60e51b81526020600482015260126024820152712737ba1033bab0b93234b0b717b7bbb732b960711b60448201526064016106ae565b6003805460ff60a01b1916600160a01b17905560405133907f62e78cea01bee320cd4e420270b5ea74000d11b0c9f74754ebdbfc544b05a25890600090a2565b610948610e04565b6001600160a01b03811661096f5760405163d92e233d60e01b815260040160405180910390fd5b600280546001600160a01b0319166001600160a01b0383169081179091556040517f6bb7ff33e730289800c62ad882105a144a74010d2bdbb9a942544a3005ad55bf90600090a250565b6109c1610d32565b600354600160a01b900460ff16156109ec57604051633b3b4caf60e21b815260040160405180910390fd5b80600003610a0d57604051631f2a200560e01b815260040160405180910390fd5b33600090815260056020526040812054610a28908390610f59565b90506000610a3533610435565b905080821115610a58576040516397ba4de360e01b815260040160405180910390fd5b33600081815260056020908152604080832086905560069091529020439055610a819084610d8b565b60405183815233907fac59582e5396aca512fa873a2047e7f4c80f8f55d4a06cb34a78a0187f62719f9060200160405180910390a2505061064b60018055565b610ac9610d32565b600354600160a01b900460ff1615610af457604051633b3b4caf60e21b815260040160405180910390fd5b34600003610b1557604051631f2a200560e01b815260040160405180910390fd5b33600090815260066020526040902054439003610b44576040516255b3e560e21b815260040160405180910390fd5b6000612710610b54601934610f0d565b610b5e9190610f24565b90506000610b6c8234610f46565b33600090815260046020526040812080549293508392909190610b90908490610f59565b90915550508115610bb157600354610bb1906001600160a01b031683610d8b565b604080513481526020810184905290810182905233907f91ede45f04a37a7c170f5c1207df3b6bc748dc1e04ad5e917a241d0f52feada39060600160405180910390a2505061088860018055565b610c07610e04565b6001600160a01b038116610c2e5760405163d92e233d60e01b815260040160405180910390fd5b600380546001600160a01b0319166001600160a01b0383169081179091556040517f7a7b5a0a132f9e0581eb8527f66eae9ee89c2a3e79d4ac7e41a1f1f4d48a7fc290600090a250565b610c80610e04565b6001600160a01b038116610ce55760405162461bcd60e51b815260206004820152602660248201527f4f776e61626c653a206e6577206f776e657220697320746865207a65726f206160448201526564647265737360d01b60648201526084016106ae565b61064b81610e5e565b6001600160a01b0381166000908152600460209081526040808320546005909252822054909180610d1e85610435565b9150610d298561046f565b90509193509193565b600260015403610d845760405162461bcd60e51b815260206004820152601f60248201527f5265656e7472616e637947756172643a207265656e7472616e742063616c6c0060448201526064016106ae565b6002600155565b6000826001600160a01b03168260405160006040518083038185875af1925050503d8060008114610dd8576040519150601f19603f3d011682016040523d82523d6000602084013e610ddd565b606091505b5050905080610dff576040516312171d8360e31b815260040160405180910390fd5b505050565b6000546001600160a01b031633146108885760405162461bcd60e51b815260206004820181905260248201527f4f776e61626c653a2063616c6c6572206973206e6f7420746865206f776e657260448201526064016106ae565b600080546001600160a01b038381166001600160a01b0319831681178455604051919092169283917f8be0079c531659141344cd1fd0a4f28419497f9722a3daafe3b4186f6b6457e09190a35050565b600060208284031215610ec057600080fd5b81356001600160a01b0381168114610ed757600080fd5b9392505050565b600060208284031215610ef057600080fd5b5035919050565b634e487b7160e01b600052601160045260246000fd5b808202811582820484141761046957610469610ef7565b600082610f4157634e487b7160e01b600052601260045260246000fd5b500490565b8181038181111561046957610469610ef7565b8082018082111561046957610469610ef756fea2646970667358221220f625f4ca1c3af8f892cccd7b566a61937d9dd1a53af955a4a3d95676a544fac264736f6c63430008180033",
  "linkReferences": {},
  "deployedLinkReferences": {}
}